:1000000000800020BD010000598000001180000028
:10001000118000001180000011800000118000009C
:100020001180000011800000118000005980000044
:100030005980000011800000BD980000C1990000A7
:10004000598000005980000059800000598000004C
:10005000598000005980000059800000598000003C
:10006000598000005980000059800000598000002C
:10007000598000005980000059800000598000001C
:10008000598000005980000059800000598000000C
:1000900059800000598000005980000059800000FC
:1000A00059800000598000005980000059800000EC
:1000B00059800000598000005980000059800000DC
:1000C00059800000598000005980000059800000CC
:1000D00059800000598000005980000059800000BC
:1000E00059800000598000005980000059800000AC
:1000F00059800000FD99000059800000299B0000F4
:1001000059800000559C0000598000005980000073
:10011000598000005980000059800000598000007B
:10012000598000005980000059800000598000006B
:10013000598000005980000059800000598000005B
:10014000598000005980000059800000598000004B
:10015000598000005980000059800000598000003B
:10016000598000007187000059800000598000000C
:10017000598000005980000059800000598000001B
:10018000598000005980000059800000598000000B
:1001900059800000598000005980000059800000FB
:1001A00059800000598000005980000059800000EB
:1001B000598000005980000059800000564B4CF2D5
:1001C000205210B51A804DF628121A8000BF00BFC9
:1001D00007F046FF514B4FF010621A60504A9A6088
:1001E000504ADA60504A136813F4807304D14F49BF
:1001F0000B604FF4A85313604D4B1A78110703D5C9
:100200001A7842F008021A704A4B4B492A221A7097
:100210004A4A4B4B8B4204D252F8040F43F8040B6A
:10022000F8E7484B484900228B4202D243F8042B9E
:10023000FAE74649464A002352F8230041F82300D2
:1002400001336F2BF8D1434B434A802103F8011B44
:100250009342FBD1414B3D4A1A60414B8A221A70AE
:10026000A3F5805324225A70A0221A709A7992071B
:10027000FCD59A79D406FCD43A4A937903F00C035E
:10028000082B384BF9D105221A7143225A719A79F9
:100290009006FCD5334A9179324B4906FBD5324A58
:1002A0004FF0817111600521516020221A709A79F6
:1002B00002F00C020C2AFAD12C4B2D4A1A602D4B5D
:1002C0002D4A1A6000225A60072243F8042C2B4A58
:1002D000C3F80C2D62B608F001F9144B1B68DA075D
:1002E00005D5274807F070FF264B274A1A60274B91
:1002F0001B785B0609D5234C234B22689A4204D114
:100300001F4807F061FF002323600AF04BF807F055
:10031000ADFE07F0DBFDFEE70E2005403080044017
:10032000823F04000100002B10D0034014D0034092
:1003300002D0074000E007400C91FF1F04CB0000F3
:100340002087FF1F0C91FF1F1898FF1F0082FF1FBF
:100350000000000000E400E05FE400E008ED00E0E1
:1003600000500640004006404480044004800440A1
:10037000C010050014E000E03F190100000020203B
:100380008741C25C1CE00340A5C3945A00F00740BB
:10039000FFFFFFFFFFFFFFFFFFFFFFFFFFFFFFFF6D
:1003A000FFFFFFFFFFFFFFFFFFFFFFFFFFFFFFFF5D
:1003B000FFFFFFFFFFFFFFFFFFFFFFFFFFFFFFFF4D
:1003C000FFFFFFFFFFFFFFFFFFFFFFFFFFFFFFFF3D
:1003D000FFFFFFFFFFFFFFFFFFFFFFFFFFFFFFFF2D
:1003E000FFFFFFFFFFFFFFFFFFFFFFFFFFFFFFFF1D
:1003F000FFFFFFFFFFFFFFFFFFFFFFFFFFFFFFFF0D
:10040000FFFFFFFFFFFFFFFFFFFFFFFFDEF9FFFF23
:1004100010B5054C237833B9044B13B10448AFF33E
:1004200000800123237010BD0C91FF1F000000000D
:1004300008CB0000084B10B51BB108490848AFF3C2
:1004400000800848036803B910BD074B002BFBD0A0
:10045000BDE81040184700BF000000001091FF1FCA
:1004600008CB00000C91FF1F0000000038B5054CC0
:10047000A4F520752046103C07F0B6F8AC42F9D13F
:1004800038BD00BF0495FF1F2DE9F04FADF5037D8A
:1004900007F092FC17221621C248C34FC34C06F046
:1004A00057FDDFF888E3FF2600254FF0170B4FF0CC
:1004B000160A4FF015094FF014088DE840077046F2
:1004C000CDF810B032468EF804500A230421CEF83D
:1004D000007006F079FCDFF858E3CDF810B0324632
:1004E00070460F238DE8400704218EF80450CEF8A3
:1004F000007006F069FCAE497AA807F0B5F87AA951
:100500007EA807F0D7F8AB4976A807F0ADF876A932
:100510007EA807F0BBF9A849064672A807F0A4F820
:1005200072A9304607F0B2F9A44906466EA807F052
:100530009BF86EA9304607F0A9F9A14906466AA8BA
:1005400007F092F86AA9304607F0A0F99D490646DF
:1005500066A807F089F866A9304607F097F99A4926
:10056000064662A807F080F862A9304607F08EF9C7
:10057000964906465EA807F077F85EA9304607F070
:1005800085F9934906465AA807F06EF85AA93046ED
:1005900007F07CF98F49064656A807F065F856A97A
:1005A000304607F073F98C49064652A807F05CF80C
:1005B00052A9304607F06AF9884906464EA807F066
:1005C00053F84EA9304607F061F9854906464AA816
:1005D00007F04AF84AA9304607F058F9814906461B
:1005E00046A807F041F846A9304607F04FF97E4982
:1005F000064642A807F038F842A9304607F046F907
:100600007A4906463EA807F02FF83EA9304607F083
:100610003DF9774906463AA807F026F83AA9304648
:1006200007F034F97349064636A807F01DF836A9D5
:10063000304607F02BF97049064632A807F014F847
:1006400032A9304607F022F96C4906462EA807F079
:100650000BF82EA9304607F019F9694906462AA871
:1006600007F002F82AA9304607F010F96549064656
:1006700026A806F0F9FF26A9304607F007F96249D7
:10068000064622A806F0F0FF22A9304607F0FEF841
:100690005E4906461EA806F0E7FF1EA9304607F091
:1006A000F5F85B4906461AA806F0DEFF1AA930469F
:1006B00007F0ECF85749064616A806F0D5FF16A92C
:1006C000304607F0E3F85449064612A806F0CCFF7E
:1006D00012A9304607F0DAF8504906460EA806F08F
:1006E000C3FF0EA9304607F0D1F84D4906460AA8C7
:1006F00006F0BAFF0AA9304607F0C8F8494906468D
:1007000006A806F0B1FF06A9304607F0BFF801467B
:10071000454806F0CFFF06A806F066FF0AA806F0D7
:1007200063FF0EA806F060FF12A806F05DFF16A892
:1007300006F05AFF1AA806F057FF1EA806F054FF4D
:1007400022A806F051FF26A806F04EFF2AA806F0C0
:100750004BFF2EA806F048FF32A806F045FF36A84A
:1007600006F042FF3AA806F03FFF3EA806F03CFF25
:1007700042A806F039FF46A806F036FF4AA806F060
:1007800033FF4EA806F030FF52A806F02DFF56A802
:1007900006F02AFF5AA806F027FF5EA806F024FFFD
:1007A00048E000BFD091FF1FBCC800009492FF1F1B
:1007B00000B9000030B900005CB9000090B9000039
:1007C000CCB9000000BA000024BA000060BA0000F2
:1007D000B0BA0000E0BA000030BB000068BB000007
:1007E0008CBB0000B0BB0000D8BB000014BC0000F4
:1007F00048BC00007CBC0000A8BC0000D0BC0000CD
:1008000004BD000040BD000060BD000084BD0000CC
:10081000B8BD0000E8BD00002CBE000070BE0000A6
:10082000A8BE0000D0BE00002891FF1F4C91FF1F02
:100830002092FF1F62A806F0D7FE66A806F0D4FE3D
:100840006AA806F0D1FE6EA806F0CEFE72A806F0E9
:10085000CBFE76A806F0C8FE7EA806F0C5FE7AA8F4
:1008600006F0C2FE144A1549154809F089FD2946CB
:10087000144806F0F9FE104A1049124809F080FDAC
:100880002946114806F0F0FE0B4A0C490E4809F0C3
:1008900077FD04F5207520460021103406F0E4FEB3
:1008A000AC42F8D1044A0949002009F069FD0DF570
:1008B000037DBDE8F08F00BF2087FF1FE9750000B2
:1008C0002891FF1F6C91FF1F3C91FF1F6D040000DA
:1008D00070B5044608460D460AF032FD236802460C
:1008E000294620465B68BDE87040184738B5054684
:1008F00006F076FD0446284606F098FD204438BDF3
:1009000038B5044608460D460AF01AFD236802462B
:1009100029465B68204698470546204606F086FD36
:10092000284438BD08B5064806F0CCFC0121162045
:1009300007F07EFD01211720BDE8084007F078BDD3
:10094000D091FF1F30B40A4B0A4A5A610125002298
:100950004021094C1D74197683F820105A769A7636
:1009600083F82120DC61184630BC06F071BB00BF63
:10097000D091FF1F4C92FF1F7C91FF1F0A2838B5B2
:1009800006BF81F0070505F00705CD43044605F0D5
:100990000101002007F038FDC5F34001012007F0F8
:1009A00033FDC5F38001022007F02EFDC5F3C00121
:1009B000032007F029FD04F00101042007F024FDC5
:1009C000C4F34001052007F01FFDC4F38001082097
:1009D00007F01AFD0021092007F016FD14F00804A5
:1009E0004FF0010112D10620182507F00DFD2B460E
:1009F000013BFDD10620214607F006FD013DFDD15A
:100A000001210620BDE8384007F0FEBC072018246D
:100A100007F0FAFC2346013BFDD10021072007F037
:100A2000F3FC013CFDD101210720BDE8384007F06F
:100A3000EBBC00BF10B500F00F0104460020FFF72B
:100A40009DFF21110120FFF799FF21120820FFF7D8
:100A500095FF21130920BDE81040FFF78FBF00BFAD
:100A600038B504460D460E20F921FFF787FF0F2108
:100A70000846FFF783FF2046FFF7DCFF00210A202E
:100A8000FFF77CFF302404210B20FFF777FF23467C
:100A9000013BFDD100210B20FFF770FF2346013BF6
:100AA000FDD1DD210E20FFF769FF0D210F20FFF79B
:100AB00065FF2846FFF7BEFF04210B20FFF75EFF0E
:100AC0002346013BFDD100210B20FFF757FF013CDE
:100AD000FDD10A200821FFF751FF034B1868BDE83C
:100AE0003840FFF7A7BF00BFC491FF1F10B50146F4
:100AF00004460E20FFF742FF21110F20BDE81040F1
:100B0000FFF73CBF002138B50446084607F090FCCB
:100B10000021012007F08CFC0021022007F088FC56
:100B20000021032007F084FC04F00101042007F0F9
:100B30006BFCC4F34001052007F066FCC4F38001A0
:100B4000082007F061FCC4F30011092007F05CFCE9
:100B50000121062007F058FC0121072007F054FC72
:100B600014F008044FF0010135D1062007F04CFCC9
:100B70002146062007F048FC1823013BFDD1204602
:100B800007F048FC0546012007F044FC044602201B
:100B900007F040FC800040EA4404032007F03AFCE0
:100BA0002C4344EAC00401210620C4F10F0407F0DD
:100BB0002BFC0121002007F03BFC0121084607F037
:100BC00037FC0121022007F033FC0121032007F04C
:100BD0002FFC204638BD072007F016FC0021072017
:100BE00007F012FC1823013BFDD1002007F012FC96
:100BF0000546012007F00EFC0446022007F00AFC1F
:100C0000800040EA4404032007F004FC2C4344EA3B
:100C1000C00401210720C4F10F0407F0F5FBC8E769
:100C200038B50D20FFF76EFF04460C20FFF76AFF72
:100C30000302052003EB0434FFF764FF054604209C
:100C4000FFF760FF204400EB051038BD38B51D20CC
:100C5000FFF758FF04461C20FFF754FF030215203E
:100C600003EB0434FFF74EFF05461420FFF74AFF5D
:100C7000204400EB051038BD10B51620FFF742FFE9
:100C800004460620FFF73EFF00EB041010BD00BF36
:100C9000C00010B56730FFF729FF302404210B2076
:100CA000FFF76CFE2346013BFDD100210B20FFF72F
:100CB00065FE013CFDD1BDE81040FFF7B1BF00BFAC
:100CC0004FF6FB7398422BDC10B5F92104460E2039
:100CD000FFF754FE0F210846FFF750FE2046FFF7AE
:100CE000A9FE00210A20FFF749FE302404210B2031
:100CF000FFF744FE2346013BFDD100210B20FFF707
:100D00003DFE08210A20FFF739FE013CFDD1FFF727
:100D100087FF064B04461868FFF78CFE204610BD7F
:100D2000A0F57F40FC38FFF7B3BF00BFC491FF1FA1
:100D3000C00010B523300C46FFF7D8FE2046FFF761
:100D400079FE00210A20FFF719FE302404210B2030
:100D5000FFF714FE2346013BFDD100210B20FFF7D6
:100D60000DFE013CFDD10A200821FFF707FE034BD1
:100D7000BDE810401868FFF75DBE00BFC491FF1FBB
:100D80004FF6FB72904201D8FFF76ABEA0F57F4094
:100D9000FC38FFF7CDBF00BF2DE9F04F002306461A
:100DA00082468BB00F4646F2FF1046F2FF3446F201
:100DB000FF5546F6FF7E37F8132082424FEA430183
:100DC00067D0A24200F08480AA4259D0A2F5CF4158
:100DD0007839032954D9A2F5D3417839072900F28B
:100DE000B08072450AF1010A03F10203E3D1002544
:100DF00046F2FF1B46F2FF3846F2FF5937F815401E
:100E00005C454FEA450334D0444536D04C4500F0AC
:100E10008580A4F5CF42783A032A0CD9A4F5D341B2
:100E20007839072907D946F6FF739C4240F0838042
:100E30000BB0BDE8F08F3B445B8803F48061B3F5F1
:100E4000007F89B23ED3C3F308035344FF2B25DC54
:100E5000032A0B4446D804F00301304603EBC121BA
:100E60000136FFF78DFF02356B0037F815405C4502
:100E7000CAD13B4402355E88C0E701350135BDE784
:100E800002330AF1010A37F8132082424FEA430184
:100E900097D139440233B1F802A08CE79B1B03F1D0
:100EA0007E00FC2853D8032A51FA83F32BD804F090
:100EB000030403EBC421304601F580710136FFF7CE
:100EC0005FFFD0E70AA800EB430333F8283CBDE7F7
:100ED000394401334A880AA901EB420222F828ACBE
:100EE000013368E704F007010431304603EBC12108
:100EF0000136FFF745FF46F6FF739C4205F10205F8
:100F00007FF47CAF94E704F0070103EBC121304686
:100F100001F504510136FFF733FFECE73B440AAA21
:100F20005B8802EB4303304633F8281C0136013559
:100F3000FFF726FFA2E7304621460136FFF720FFE4
:100F40009CE772453FF453AF0AF1010AC8E7052256
:100F50000749084806F030FA304641F6FF71FFF7BE
:100F60000FFF4FF47A700BB0BDE8F04F07F066BA90
:100F70000CBF00004C91FF1F10B508210B2030243E
:100F8000FFF7FCFC2346013BFDD100210B20FFF7BE
:100F9000F5FC013CFDD1034B0022BDE810401A7066
:100FA000FFF754BE9092FF1F08B5FB210E20FFF7FC
:100FB000E5FC0F210846FFF7E1FC06210B20FFF7B7
:100FC000DDFC00210B20FFF7D9FC3023013BFDD1D4
:100FD000014B01221A7008BD9092FF1F134B10B5F0
:100FE00018603024FFF726FD00210A20FFF7C6FC19
:100FF0002346013BFDD1FB210E20FFF7BFFC0F2153
:101000000846FFF7BBFC06210B20FFF7B7FC0021C9
:101010000B20FFF7B3FC013CFDD108210A20FFF7AC
:10102000ADFC034B01221A7010BD00BFC491FF1F1D
:101030009092FF1F10B5FFF7FDFCFB210E20FFF77C
:101040009DFC0F210846FFF799FC302404210B205A
:10105000FFF794FC2346013BFDD100210B20FFF755
:101060008DFC013CFDD1044B1868FFF7E3FC034BFA
:1010700001221A7010BD00BFC491FF1F9092FF1F84
:1010800008B5FFF7E3FD134BFF2118600E20FFF7B3
:1010900075FC0F210846FFF771FC09210A20FFF7B4
:1010A0006DFC06210B20FFF769FC3023013BFDD1CD
:1010B0001021094808F042FA084806F0B7F9002163
:1010C0000B20FFF75BFC08210A20BDE80840FFF772
:1010D00055BC00BF4092FF1F14BF00001488FF1FC3
:1010E00008B5FF210E20FFF749FC0F210846FFF746
:1010F00045FC07210B20FFF741FC3023013BFDD1CC
:1011000000210B20BDE80840FFF738BC10B584B0C3
:10111000FFF732FF0C210A20FFF730FC06210B20DD
:10112000FFF72CFC642007F089F905211A4808F024
:1011300005FA1A4806F07AF900210B20FFF71EFC89
:1011400008210A20FFF71AFC01220021144805F0AB
:10115000B3FC6846002106F087FA28241149684646
:1011600006F062FB013CF9D169460D4806F038F9FA
:10117000684606F039FA21460122094805F09CFC30
:1011800005220549064806F017F9074B20461C7052
:10119000FFF796FD04B010BD28BF00001488FF1FA4
:1011A0004C91FF1F6CBF00009092FF1F30B50D46A1
:1011B00085B00021044606F057FAB5F5805F0ED3DE
:1011C00010222946684606F0A7FA6946204606F02E
:1011D00027FB684606F008FA204605B030BD0849EE
:1011E000204606F021FBFF2DEAD80549204606F0EF
:1011F0001BFB0F2DE4D80249204606F015FBDFE764
:1012000030BF000030B50D4685B00021044606F021
:101210002BFA0F2D03D80949204606F005FB1022B2
:101220002946684606F078FA6946204606F0F8FA3C
:10123000684606F0D9F9204605B030BD30BF000041
:1012400030B50D4685B00021044606F00DFAB5F51F
:10125000004F0ED308222946684606F05DFA69461B
:10126000204606F0DDFA684606F0BEF9204605B0D5
:1012700030BD0F49204606F0D7FAB5F5805FE9D2B8
:101280000B49204606F0D0FAB5F5007FE2D20849B6
:10129000204606F0C9FA3F2DDCD80549204606F065
:1012A000C3FA072DD6D80249204606F0BDFAD1E789
:1012B00030BF00008368994270B520D206460D46C3
:1012C00000242946304606F05BFB03782F2B01D81B
:1012D000204670BD2946304606F052FB0378372B76
:1012E000F6D82946304606F04BFBB3680278E40096
:1012F0000135303C9D421444E3D3204670BD0024A8
:10130000E6E700BF00B585B001466846FFF798FFE5
:101310006946044806F064F8684606F065F905B0C9
:101320005DF804FB4C91FF1F42F20F73984210B519
:10133000044607D9214600230A220E48BDE8104082
:1013400006F084B800210B4806F0C0F8B4F57A7FA7
:10135000F0D20021074806F0B9F8632CEAD8002142
:10136000044806F0B3F8092CE4D80021014806F03F
:10137000ADF8DFE74C91FF1FB0F5802F10B50446A4
:1013800007D32146002308221548BDE8104006F087
:101390005DB80021124806F099F8B4F5004FF0D27C
:1013A00000210F4806F092F8B4F5805FE9D20021E1
:1013B0000B4806F08BF8B4F5007FE2D20021084814
:1013C00006F084F83F2CDCD80021054806F07EF8B2
:1013D000072CD6D80021024806F078F8D1E700BFE4
:1013E0004C91FF1F30B5002285B0114605461048CC
:1013F00005F062FB6846002106F036F928240D4905
:10140000684606F011FA013CF9D16946084805F032
:10141000E7FF684606F0E8F822462146044805F052
:101420004BFB2946024805F0DBFF05B030BD00BF8D
:101430002092FF1F6CBF000070B5002484B0012112
:10144000E0B20C4406F0F4FF0B2CF8D101210F2080
:1014500006F0EEFF0121072006F0D6FF012106204D
:1014600006F0D2FF01210D2006F0E2FF01210C2041
:1014700006F0DEFF0121204606F0DAFF0C2006F020
:10148000B3FF00210E2006F0D3FF08210A20FFF74A
:1014900075FA20460021FFF771FA0021122006F0AC
:1014A000C7FF00210E2006F0C3FF002302222821DF
:1014B0003548364E05F05CFC00221146324805F0F6
:1014C000FBFA28223249304805F076FF00254FF01C
:1014D000FF3407E0358005F50065B5F5004F04F5EC
:1014E000006419D02046FFF7EBFB0028F2D1012160
:1014F0002046FFF745FC2046FFF7E2FB012808BF26
:1015000035802046002105F50065FFF739FCB5F56B
:10151000004F04F50064E5D1012200211A4805F0CE
:10152000CBFA0D221B49184805F046FF31881648B2
:1015300005F0CCFF0D221849134805F03DFF0020AF
:10154000FFF7BEFB002302222821144805F010FCFF
:1015500001220021114805F0AFFA282210490F4856
:1015600005F02AFF0F49684606F092F86846FFF733
:1015700039FF684606F038F841F288310A4805F02C
:10158000CDFF04B070BD00BF4C91FF1F3891FF1F0D
:1015900034BF000060BF000070BF00002092FF1F3A
:1015A00080BF0000ACBF00001488FF1F012910B5E8
:1015B000044609D002290BD003290CBF064907496C
:1015C00006F052F8204610BD054906F04DF8F9E73F
:1015D000044906F049F8F5E7C4C0000000BD00006A
:1015E000D4BF0000D8BF0000012910B5044609D0BF
:1015F00002290BD003290CBF0649074906F034F82D
:10160000204610BD054906F02FF8F9E7044906F019
:101610002BF8F5E740C0000000BD000030C300001B
:1016200050C00000012910B5044611D0022913D082
:10163000032915D0042917D0052919D006291BD054
:1016400007290CBF0E490F4906F00EF8204610BDC1
:101650000D4906F009F8F9E70C4906F005F8F5E739
:101660000B4906F001F8F1E70A4905F0FDFFEDE747
:10167000094905F0F9FFE9E7084905F0F5FFE5E755
:10168000F8BF000000BD0000E0BF0000E4BF0000A4
:10169000E8BF0000ECBF0000F0BF0000F4BF000096
:1016A000F0B50C4685B0354916461F46054605F08F
:1016B000DBFF6CB3012C51D0022C45D0032C48D059
:1016C00007D92F49284606F0AFF8042C20D0052C66
:1016D00035D0062C4CD0072C45D024F00404013C16
:1016E000022C12D8330620D42B21284606F0AAF863
:1016F000FAB206F07F01684606F00EF86946284601
:1017000006F08EF8684605F06FFF284605B0F0BD7C
:10171000FAB2F1B2684605F0FFFF6946284606F0C6
:101720007FF8684605F060FFD7E72D21284606F0D0
:1017300089F806F07F01C1F18001FAB2DBE71149B7
:10174000284606F071F8CDE70F49284606F06CF8F8
:10175000C3E70E49284606F067F8BEE70949284660
:1017600006F062F8B9E70949284606F05DF8B9E7DE
:101770000549284606F058F8B4E700BF6CBF0000E2
:1017800004C00000FCBF000000C0000044C2000014
:1017900070B50C463A491646054605F065FFD4B1CA
:1017A000012C3ED0022C32D0032C3FD0042C33D05D
:1017B000052C45D0062C3ED0072C18D08EB1012E1A
:1017C00049D0022E41D0032E03D12E49284606F0DF
:1017D0002BF8284670BD2C49284606F025F8002E27
:1017E000EDD12749284606F01FF8284670BD274945
:1017F000284606F019F8A6B3012E3CD0022E35D0AB
:10180000032EE6D12249284606F00EF8E1E72149E9
:10181000284606F009F8D1E71F49284606F004F8E3
:10182000CCE71E49284605F0FFFFC7E71C492846BC
:1018300005F0FAFFC2E71B49284605F0F5FFBDE7B2
:101840001949284605F0F0FFB8E71849284605F081
:10185000EBFF284670BD1649284605F0E5FF2846EF
:1018600070BD1449284605F0DFFFB2E7124928464B
:1018700005F0DAFFADE71149284605F0D5FFA8E7E6
:1018800000BD000038C0000008C0000024C00000F7
:1018900034C0000010C0000018C000000CC00000E0
:1018A00014C0000020C000001CC0000040C00000A8
:1018B000C4C0000028C0000030C000002CC00000E0
:1018C0002DE9F0430C4685B0E0491646054605F083
:1018D000CBFE47F67F639C4200F0018147F6BF6371
:1018E0009C4200F0048147F6FF639C4200F00481B3
:1018F00047F2BF639C4200F0048147F63F639C427D
:1019000000F0048147F2FF639C4200F0048147F23B
:101910007F639C4200F0048147F23F639C4200F0E9
:1019200004814FF609239C4200F0388146F6BF63DC
:101930009C4200F0388146F67F639C4200F038817B
:1019400046F23F62944200F038814EF23F732340EA
:10195000934200F037814FF63F72224046F23F51EA
:101960008A4200F0348146F23F1293424FEAD42774
:1019700000F0328146F27F02944200F0418146F24B
:10198000BF02944200F0D68046F23F72944200F0CB
:101990003C8146F27F72944200F03C8146F2BF7275
:1019A000944200F03C8146F2FF72944200F0428182
:1019B00046F23F42934200F0428146F23F32934268
:1019C00000F0788117F01F08C4F3022900F00D81A0
:1019D000B8F1010F00F07A81B8F1020F00F07B81BD
:1019E000B8F1030F00F07C8107F01C03042B00F01A
:1019F0007C81082B00F08B810C2B00F0A080FA0674
:101A000040F11281B9F1000F00F05B81B9F1010FD3
:101A100000F08981B9F1020F00F08081B9F1030F64
:101A200000F09581B9F1040F00F08C81B9F1050F38
:101A300000F08381B9F1060F00F07A81B9F1070F48
:101A400000F0678123074CBF81498249684605F051
:101A50000BFE6946284605F0E3FE684605F0C4FD26
:101A60000A22C8F38101684605F056FE69462846F9
:101A700005F0D6FE684605F0B7FD0A2207F003011F
:101A8000684605F049FE6946284605F0C9FE6846E5
:101A900005F0AAFDC4F381116846FFF787FD69468A
:101AA000284605F0BDFE684605F09EFDC4F3011111
:101AB0006846FFF799FD6946284605F0B1FE68467D
:101AC00005F092FD04F007016846FFF7ABFD69469B
:101AD000284605F0A5FE684605F086FD03E05E4950
:101AE000284605F0A1FE284605B0BDE8F0835B4915
:101AF000284605F099FEF6E75949284605F094FE78
:101B0000F1E75849284605F08FFEECE7564928468C
:101B100005F08AFEE7E75549284605F085FEE2E72D
:101B20005349284605F080FEDDE75249284605F076
:101B30007BFED8E75049284605F076FED3E7C4F38C
:101B4000811249466846FFF723FE6946284605F09C
:101B500067FE684605F048FD0A2207F00301684663
:101B600005F0DAFD6946284605F05AFE684605F09C
:101B70003BFD3649284605F057FEF2B204F03F011E
:101B8000684605F0C9FD6946284605F049FE6846E5
:101B900005F02AFD284605B0BDE8F0833749284600
:101BA00005F042FE9FE73649284605F03DFE9AE7DC
:101BB0003449284605F038FE95E73349284605F0B4
:101BC00033FE90E73149284605F02EFE8BE7304979
:101BD000284605F029FE86E72E49284605F024FE12
:101BE00007F0030168460A22CBE72B49284605F097
:101BF0001BFE3346E2B249466846FFF751FDC2E795
:101C00002649284605F010FE6DE72549284605F0CF
:101C10000BFE68E72349284605F006FE63E72249E4
:101C2000284605F001FE5EE73F21284605F00AFE42
:101C30002146D7E71D49284605F0F6FD53E71C4924
:101C4000284605F0F1FD07F00301CBE76CBF00006B
:101C5000DCBF000000BD00003CC0000044C000002C
:101C60004CC0000054C0000060C000006CC0000008
:101C700078C0000084C00000D0C000008CC000000C
:101C800098C00000A0C00000A8C00000B0C00000C4
:101C9000B8C00000C0C0000010C10000C8C00000F3
:101CA000D8C00000E4C00000F0C00000FCC000008C
:101CB00008C100002849284605F0B6FD07F00301D9
:101CC00090E72649284605F0AFFDBBE624492846A3
:101CD00005F0AAFD8DE72349284605F0A5FD88E714
:101CE0002149284605F0A0FD83E72049284605F054
:101CF0009BFD07F003010A22684605F00DFD6946C9
:101D0000284605F08DFD684605F06EFC71E7184920
:101D1000ECE71849284605F087FD93E61649284662
:101D200005F082FD8EE61549284605F07DFD89E621
:101D30001349284605F078FD84E61249284605F047
:101D400073FD7FE61049284605F06EFD7AE60F49DF
:101D5000284605F069FD75E688C100001CC1000039
:101D600098C1000014C10000B0C1000018C10000FB
:101D7000A4C1000038C1000024C1000020C100003F
:101D800034C1000030C100002CC1000028C1000097
:101D9000F0B44FF63F74044046F23F52C10A9442F9
:101DA00001F01F034FEA10251AD04EF23F74044091
:101DB00046F23F6294423AD046F23F12944239D002
:101DC00046F27F0290424CD046F2BF02904235D09C
:101DD00046F23F4294424FD046F23F32944259D0AD
:101DE000002214465BB96B0203F46063C0B21103B6
:101DF0004FF40024204408441844F0BC7047012BE1
:101E000027D0022B30D0032B1BD001F01C06042E50
:101E100036D0082E6ED011F010074FD10C2E3DD0C9
:101E2000E4033B4604F5802411033846E2E7002230
:101E30000124D7E701F003020224D3E7002204249F
:101E4000D0E76B0203F46063C0B211034FF4841453
:101E5000D0E76B0203F46063C0B211034FF40824AF
:101E6000C8E700220324BDE76B0203F46063C0B23D
:101E700011034FF48014BDE701F003020524B1E71C
:101E80000A036B0202F4405103F46063C0B24FF4E2
:101E90004024AFE701F003020624A3E705F007039F
:101EA000072BC0F3811200F03F002DD0DB030903A4
:101EB00003F5C01401F4405153029BE700F00704FE
:101EC000ED034A0205F4603504F5A01102F4C06286
:101ED0002944114400F0C0048200214402F0200291
:101EE00040089B020A4400F0180003F440531044D9
:101EF000184482E70A036B0202F4405103F4606362
:101F0000C0B24FF4482475E7530239464FF4E01449
:101F100070E700BFC0F38241012970B4C0F3C2343E
:101F2000C0F3023617D00229C0F34222C0F30805DD
:101F300031D0032916D0042933D0052938D00629F9
:101F40001ED007290BD100F03F0000F5CE4303EB74
:101F5000821070BC7047022C40D0072C0BD100209F
:101F600070BC7047100200EBC6202844621C00EBD6
:101F7000423070BC70471C4B53F8240070BC704753
:101F800000F03F0000F5C04000EB042404EBC6263F
:101F900006EB8210DDE7120202EBC422501970BC7E
:101FA0007047A31C05EB022000EBC32070BC7047F8
:101FB00000F0070101F5004101EB042404EB463673
:101FC00000F4E073410006EBC222134401F030013B
:101FD00080080B4400F008001844BAE7024B9A68E6
:101FE00002EBC620B5E700BF2487FF1F70B584B0A1
:101FF0000D46860C4749684605F036FB6846FFF7F4
:10200000F1F9684605F0F0FAEDB1012D06F007048C
:1020100009D0022D23D106F00506012E38D0052C5B
:102020004BD004B070BD012C49D0022C49D0032CF8
:1020300039D0042C3FD0052C3BD0062C37D0072CB0
:10204000EFD1354900E03549684605F021FB684687
:10205000FFF7C8F9684605F0C7FA04B070BD032D54
:1020600031D1A31E022B0FD82D49684605F010FB75
:102070006846FFF7B7F9684605F0B6FA062C14D0A3
:10208000072CCED12749DFE7052CF7D12649DBE71E
:102090002649684605F0FCFA6846FFF7A3F968464A
:1020A00005F0A2FABBE72249CEE72249CCE7224954
:1020B000CAE72249C8E72249C6E72249C4E72249BC
:1020C000C2E72249C0E7042D0AD1052C17D0A31E70
:1020D000022B01D81E49B7E7052CA2DD1D49B3E745
:1020E000052D03D1052CF2D11B49ADE7062D03D1F7
:1020F000052CECD11949A7E7032D92DDE7E7184934
:10210000684605F0C5FA6846FFF76CF9684605F0C1
:102110006BFADCE700BD000000C200003CC100001B
:1021200048C20000A8C2000068C2000014C200003B
:102130009CC1000084C20000DCC10000B4C10000EA
:10214000A8C100002CC2000064C1000090C10000C2
:1021500034C3000054C30000ECC2000010C30000F0
:10216000CCC200002DE9F0476D4884B004F0E2FCD9
:10217000FEF76CFDC0F30E07FEF768FD0446FEF7A0
:102180004FFD00221146664804F096FC0422654982
:10219000634805F011F90020FEF77AFDFFF7B2F869
:1021A000032261495E4805F007F90120FEF770FD42
:1021B000FFF7A8F803225D49594805F0FDF8022011
:1021C000FEF766FD8146FFF79DF803225849544803
:1021D00005F0F2F80320FEF75BFD8246FFF792F868
:1021E00054494F48012205F0E7F821044CBF5249F9
:1021F00052494B48012205F0DFF83846FEF760FDF2
:10220000012280460021464804F056FC3846FFF77C
:1022100079F801220621424804F04EFC082241468A
:102220006846FFF74DFB69463D4805F0D9F868461A
:1022300005F0DAF94FEAD82303F01F02012AC8F3A8
:1022400002255FFA88F411DD032A09DC01266B1EE2
:10225000062B15D8DFE803F059500C1459500C0028
:1022600003F01C03042BF1D0082B31D10026EEE73C
:1022700018F0800F1CBF04F07F04AAF1800A5444B8
:10228000032D4FF001022B49254830DD05F094F86D
:1022900001222B492248164405F08EF82046FFF70C
:1022A00031F8AEB14FF00008032D17DD2046FEF7E0
:1022B00007FD03040446F9D408F10108B045F3D141
:1022C00002222049164805F077F82046FFF71AF851
:1022D0003846FEF7F5FC04B0BDE8F0872046FEF76F
:1022E000EFFC08F10108B0450446DDD1E8E705F050
:1022F00063F8002DD5D0D1E718F0800F1CBF04F093
:102300007F04A9F180094C44BAE718F0800F1DBF83
:1023100004F07F04A7F18003E418E419B0E700BFDC
:102320004C91FF1F64C300006CC3000070C3000029
:1023300074C300006CBF000040C0000078C3000000
:1023400004C000007CC300002DE9F04784B00546BE
:10235000FEF77CFCC0F30E07FEF778FC0446FEF7A0
:102360005FFC0020FEF794FC80460120FEF790FC05
:1023700006460220FEF78CFC81460320FEF788FC0F
:10238000EB07824638D4AA0705D43846FEF798FCF6
:1023900004B0BDE8F0873846FEF792FC3946804627
:1023A0006846FEF74DFF6946714805F019F8684622
:1023B00005F01AF9082241466846FFF781FA694696
:1023C0006B4805F00DF8684605F00EF94FEAD82382
:1023D00003F01F02012AC8F302255FFA88F45EDDCC
:1023E000032A55DC01266B1E062B62D8DFE803F0BA
:1023F000B5AC5961B5AC590004215E4807F09EF8B0
:1024000041466846FEF71CFF6946594804F0E8FF5C
:10241000684605F0E9F80321574807F08FF8314680
:102420006846FEF70DFF6946514804F0D9FF68463B
:1024300005F0DAF80321514807F080F8494668466C
:10244000FEF7FEFE69464A4804F0CAFF684605F0FA
:10245000CBF803214A4807F071F851466846FEF769
:10246000EFFE6946424804F0BBFF684605F0BCF841
:102470000121444807F062F820044FF001014CBFED
:102480004148424807F05AF8394804F0CFFF7AE74C
:1024900003F01C03042BA5D0082B7FF476AF002695
:1024A000A1E718F0800F1CBFAAF1800A04F07F0496
:1024B0005444032D4FF00101324840DD07F03EF84F
:1024C000012133480E4407F039F821466846FEF7EB
:1024D000B7FE6946264804F083FF684605F084F895
:1024E000002E3FF452AF4FF00008032D1EDD2046B2
:1024F000FEF7E6FB03040446F9D408F10108B045F1
:10250000F3D10221234807F019F821466846FEF767
:1025100097FE6946164804F063FF684605F064F8C4
:102520003846FEF7CDFB04B0BDE8F0872046FEF745
:10253000C7FB08F10108B0450446D6D1E1E706F033
:10254000FDFF002DCCD0C0E718F0800F1CBF04F0B9
:102550007F04A9F180094C44ABE718F0800F1DBF40
:1025600004F07F04A7F18003E418E419A1E700BF99
:102570001488FF1F64C300006CC3000070C3000018
:1025800074C300006CBF000040C0000078C30000AE
:1025900004C000007CC30000F8B50121142005F040
:1025A00033FF012005F04AFF122005F069FB0021EE
:1025B0000746142005F028FF0121152005F024FF0F
:1025C000012005F03BFF122005F05AFB00210646D2
:1025D000152005F019FF0121162005F015FF012037
:1025E00005F02CFF122005F04BFB002105461620BC
:1025F00005F00AFF0121172005F006FF012005F074
:102600001DFF122005F03CFB00210446172005F0B9
:10261000FBFE642F0DDC642E19DD642D4FF00400E9
:102620000EDD642C4FF003000DDD4FF400602044FC
:10263000F8BD642EF1DC642D3E464FF00100F0DC65
:10264000642C3546F1DC2C4680022044F8BD642D14
:10265000E7DC642CE9DC0020F8BD00BF70B505465E
:10266000FFF79AFF08B9002070BD04460A2005F064
:10267000E5FEFFF791FF231A002BB8BF5B42452B05
:1026800006463ADD0020231A002BB8BF5B42452BDB
:10269000E9DC34441D4A1E49204482FB0032C31742
:1026A000D21A81FB0010C2F3090240F2EE218A42E5
:1026B000C3EB602015DC6FF4C8741319C62B22D944
:1026C0006FF482710A448B2A34BF032300235DB95F
:1026D0000028C8DD002BC6D0013800EB40001844AC
:1026E00070BD0223002DF3D00028BCDD002BBAD032
:1026F0000138A0EB8000C01A70BD0A2005F09EFED4
:10270000FFF74AFFBFE70123E1E700BF56555555E4
:10271000ABAAAA2A2DE9F043044685B000283AD195
:10272000012701220021BE4804F0C6F92046FEF729
:10273000E9FD0B22BB49BA4804F03EFE04F00F0647
:10274000FEF79AFA4FF40045FEF7DCFD45FA06F075
:10275000FEF770F907FA06F0FEF7C8F904F0070172
:102760000A20FEF70BF921110B20FEF707F9FEF7FF
:1027700057FA25FA06F1091A18BF01210D2005F0B4
:1027800043FE0134642005F059FEB4F5803FC8D102
:1027900005B0BDE8F083012852D0022800F0138173
:1027A000032800F0F280042800F0D080052800F013
:1027B0009980062800F07981072800F055810828C3
:1027C000E6D1FEF7D9FB012200219548964DDFF8AE
:1027D0007C8204F071F995499148FEF779F800265A
:1027E0002B88B342344602D8E41A9C42FCD22046DD
:1027F000FEF766FA81464FF6FF7004F0F1FE0146DF
:1028000007462046FEF7BCFA2046FEF759FA391A69
:1028100018BF01210D2005F0F7FD0136494620467D
:10282000FEF7AEFA4645DBD1012200217C4804F0D8
:1028300043F97F497A48FEF74BF805B0BDE8F083CD
:10284000FEF79AFB224600217548774D04F034F9D3
:1028500078497348FEF73CF822460021704804F09E
:102860002BF92B886BB300246E4601E0914234D0E3
:102870002046FEF725FA214607463046FEF796FC2D
:1028800031466D4804F0ACFD304604F0ADFE012148
:102890006A4806F053FE39463046FEF787FC31465B
:1028A000654804F09DFD644804F0C0FD304604F026
:1028B0009BFE2B880134A342C4F3080140F2FF12AF
:1028C000D4DC01220021564804F0F6F85C49544853
:1028D000FDF7FEFF05B0BDE8F0835A495048FDF70B
:1028E000F7FFC5E7504D6E465749304604F0BCFE31
:1028F0002B88B3F5005FC8BF4FF400541BDD2146A1
:102900002046FEF73DFA2B884034A342F7DCB3F5AE
:10291000005F10DD4FF400542046FEF7D1F98442E9
:102920004FF05801304608BF2E2104F08BFF2B8852
:102930004034A342F0DC31463F4804F051FD3E48AC
:1029400004F074FD304604F04FFECDE7FEF714FBB3
:10295000002133483D4C012204F0AEF83C49304898
:10296000FDF7B6FF4FF6FF710020FEF779F8013C46
:10297000F8D1214601222A4804F09EF8354928481A
:10298000FDF7A6FF05B0BDE8F083FEF7F5FA0021DC
:1029900023482E4C012204F08FF82F492048FDF7E0
:1029A00097FF00210846FEF75BF8013CF9D121466C
:1029B00001221B4804F080F828491948FDF788FFD8
:1029C00005B0BDE8F083FEF7D7FA002114481F4C8C
:1029D000012204F071F822491148FDF779FF4FF602
:1029E000FF7004F0FDFD014605460020FEF738F8B3
:1029F0000020FEF765F9291A18BF01210D2005F006
:102A000003FD013CEBD121460122054804F054F8B6
:102A100014490348FDF75CFF05B0BDE8F08300BF33
:102A20004C91FF1F80C300003891FF1F3CC4000081
:102A300050C400008CC300001488FF1FB4C3000002
:102A4000A0C30000DCBF000000BD0000E0FF1F00CD
:102A5000F8C3000008C40000D8C30000E8C30000A9
:102A6000B8C30000C8C30000FEF786FA184900206A
:102A7000FEF792F917492820FEF78EF916494020F3
:102A8000FEF78AF915496020FEF786F90122002138
:102A9000134804F011F813491148FDF719FFC82035
:102AA00005F0CCFC05B0BDE8F08346F26660FEF7A9
:102AB00095FA012200210A4803F0FEFF0A4908485E
:102AC000FDF706FFC82005F0B9FC05B0BDE8F083AE
:102AD0004487FF1F9C87FF1FE087FF1F6C87FF1F36
:102AE0004C91FF1F2CC4000018C400002DE9F041D8
:102AF000624D634B2A6883FB0214D117C1EBA41407
:102B000004EB8404A2EB44140C282C6000F0AC808D
:102B10000D28074600F093800A2800F09E8083FB72
:102B20000423E617C6EB23164F2C304646DC07F08D
:102B300019FB07F03DF907F003FC06EB8603A4EB55
:102B4000C301504EC2B2C9B24F4803F0B5FF33784B
:102B5000FBB1282420214C4804F032F8013CF9D183
:102B6000D5F80080464C4FEAE87384FB0824C3EB99
:102B70002414204607F0F6FA07F01AF907F0E0FBF4
:102B800004EB8404A8EBC401C2B2C9B23E4803F00E
:102B900093FF39463C4804F013F82B68384A013358
:102BA00082FB0321DA17C2EBA11202EB8202A3EB34
:102BB000421300222B603270BDE8F08107F0D2FA98
:102BC00007F0F6F800224FF0804307F07DF907F098
:102BD000B7FB06EB8603A4EBC3012A4EC2B2C9B20F
:102BE0002A4803F069FF337823B32824202127489B
:102BF00003F0E6FF013CF9D1D5F80080204C4FEA04
:102C0000E87384FB0824C3EB2414204607F0AAFAD7
:102C100007F0CEF800224FF0804307F055F907F097
:102C20008FFB04EB8404A8EBC401C2B2C9B21748FD
:102C300003F042FF3946154803F0C2FFADE783FBBE
:102C40000423E417C4EB231303EB83030D4ADB00D7
:102C500001212B601170BDE8F0810A4B283401225C
:102C60002C601A70BDE8F081074803F063FF074845
:102C700003F060FF00232B60BDE8F081C891FF1FC7
:102C8000676666661C92FF1F4C91FF1F2092FF1F14
:102C9000FDF7FABBF8B507460E461D461446FDF78C
:102CA00051FEF9B2114804F019FBC6F307210F4891
:102CB00004F0E8F8F1B20D4804F0E4F855B1013D34
:102CC00054FA85F5013C14F8011F084804F0DAF8BD
:102CD000AC42F8D10121054804F02EFB052005F097
:102CE000ADFBBDE8F840FDF71DBE00BFD091FF1F52
:102CF0002DE9F043032889B018DCC4010D4604F126
:102D000080072846FDF7DCFFC0F307210646204672
:102D100005F0B4F8601CF1B2023405F0AFF8A74238
:102D200005F10105EDD109B0BDE8F083071FB0F54D
:102D3000017F4FEAC71701F1080607F18008ACBF11
:102D40004FF057094FF053090DF10505A6F108049E
:102D50002046FDF7B5FF01340312B44205F8013CEB
:102D600005F8020BF4D11023394601AA48461F4446
:102D7000FFF790FF052005F061FBB84506F1080656
:102D8000E2D109B0BDE8F08338B5C4B20D46FDF715
:102D9000D9FD2146134804F0A1FAC5F307211148D3
:102DA00004F070F8E9B20F4804F06CF801210D4806
:102DB00004F0C2FA012321461A460A4804F0C8FA70
:102DC000084804F05BF820B9FF24FDF7ABFD20466E
:102DD00038BD044804F07EF8C4B2FDF7A3FD2046D8
:102DE00038BD00BFD091FF1F03282DE9F04116DC4C
:102DF000C5010C4605F18007284605F025F8064672
:102E0000681C05F021F8023540EA06212046FDF74E
:102E1000B7FFAF4204F10104EED1BDE8F081051F18
:102E2000B0F5017F4FEAC5150C4605F18008B4BF27
:102E30005326572629463046FFF7A6FF691C07464A
:102E40003046FFF7A1FF023540EA07212046FDF793
:102E500097FF454504F10104ECD1BDE8F08100BFC6
:102E60002DE9F04783B25A1E062A84B0044664D97D
:102E70000B2862D0C94E3568012D00F00C8208285D
:102E800001F0DA80092C00F090800A2C40F03E819D
:102E9000032D40F20782052D00F09480DFF800A397
:102EA000DAF80030BE4F022B00F3CE81092C00F07F
:102EB000EB86042D00F0AC82062D00F0AD82072DCC
:102EC00000F0B482082D40F09B83002C40F3628117
:102ED0000B2C00F0FF87052C18DCB24F4FF00008D8
:102EE0003B4607EB840153F8042B8B429044FAD104
:102EF00057F8243053B10025A90105EB0800FFF76E
:102F000073FF57F824300135AB42F5D8A64803F0DB
:102F100011FE0023A549CAF800306846336004F06A
:102F2000A3FB6846FEF75EFA684604F05DFB9E4828
:102F300003F0ACFD04B0BDE8F087984E3568012D74
:102F400000F0DC80DFF858A2DAF80030012B40F303
:102F5000F280082C5CD1DAF80030012B00F05B81A4
:102F6000022B59D0082C8DD1DAF80030022B01F059
:102F70006D80012B00F0DA83032D8CD18C4B1B6804
:102F8000002B40F0C387DAF80030022B02DD032B60
:102F900000F063818749884A834800230B60CAF8A0
:102FA0000030136003F072FDF4E0DFF8F4A1DAF80A
:102FB0000030022B00F00E81032D3FF471AF052D80
:102FC0007FF46CAF002C7FF769AF0A2C00F00C8304
:102FD0000B2C00F0AE860C2C00F0AB803034FDF7EB
:102FE0004BFE10F0010540F03E8621462020FDF703
:102FF00037FD724B1A8847F67F639A4200F06A8663
:103000006F4B1888FDF75CFE2046FDF7E7FFC1E037
:10301000DAF80030022BA5D1002D40F0ED81654F8C
:10302000DFF894913968D9F80020DFF8A081C1F168
:1030300005030B2C03EB43034FF0070008BF0024EC
:10304000984022EA000204FA03F3481C13449BB29E
:103050002A46294638605448C9F8003003F02CFD50
:10306000B8F80000FEF74EF9012256494E4804F028
:10307000A3F9D9F80000FEF745F9294601224A488C
:1030800003F01AFD2946684604F0EEFA6C4628253E
:103090004D49204604F0C8FB013DF9D12146424884
:1030A0004A4E04F09DF9204604F09EFA012229467A
:1030B0003D4803F001FDB8F800204FF6FB739A423B
:1030C00040F27F8242493848022204F075F9318883
:1030D0003548A1F57F41FC3904F0F8F93B68354AE1
:1030E000052B40F3F38500231360072100222E48AF
:1030F00003F0E2FC2C4803F0D3FC4BE0DFF8A0A087
:10310000DAF80030012B19DD012522E70C2C40F004
:10311000CF87DFF88CA0DAF80030012B40F3AE83C4
:10312000022B00F03183032D00F0E885052D7FF49C
:10313000B7AE232453E7032D3FF60BAFDFF87890AB
:103140001C4F002B00F060820B2C3D6808BF4FF035
:103150000008A24614BFA046C246002D00F06582BA
:1031600000221148E9B203F0A7FC51460E4804F0D2
:10317000ADF93268D9F800103B680B48012A14BF3A
:1031800008220A2201FB02820133C9F800203B60B9
:1031900003F07CFC04B0BDE8F08700BF1495FF1F6E
:1031A0001092FF1FF087FF1F4C91FF1F00BD000012
:1031B0001892FF1F1492FF1FBC91FF1F8C92FF1FDC
:1031C0000C92FF1FB4C300006CBF00003A91FF1FB8
:1031D00090C40000022D3FF6EFAEA74F3B68002DD4
:1031E00003F101020CBF052106219142C0F23F8686
:1031F0000833D9B23A600022A04803F05DFC9F4832
:1032000003F04EFC3368022BC4D19D4B396818681B
:10321000FEF7ECFEBEE7984F3B68002B7FF7A4AEAD
:10322000022D3FF6A1AE964D94482A68013BD9B2D3
:10323000D40800223B602C6003F03EFC012291493F
:103240008E4804F0B9F8A5E7032B7FF432AE002CCA
:1032500040F315850B2C00F015820023082CCAF8CA
:10326000003040F31282092C40F01082FDF704FD7B
:1032700010F0010F684640F01186834904F008FA07
:103280006846FEF7AFF8684604F0AEF97F4B188841
:10329000FDF7D0FE7EE7083B012B7FF62FAF0A2C0F
:1032A00040F00481DFF800A2DAF80030022B00F0D1
:1032B000DF82714F3B68002B00F09881DFF8C091EE
:1032C000DFF8C881012BD9F8003000F00E86A8F88D
:1032D000003000226948114603F0EEFB3368B8F86D
:1032E0000000012B00F0B584FEF70CF8FDF744FE5A
:1032F00001226749614804F05FF83368B8F80000BC
:10330000012B00F0AA84FDF7DBFCFDF7FBFF68460C
:10331000002104F0A9F96C4628255A49204604F0FA
:1033200083FA013DF9D12146544804F059F820466A
:1033300004F05AF9012329461A4650483D60C9F85D
:103340000050CAF8003003F0B7FB2946204604F0CD
:103350008BF928254B49204604F066FA013DF9D146
:1033600021464648494F04F03BF8204604F03CF91A
:1033700001222946414803F09FFBB8F800204FF690
:10338000FB739A4200F2C581072242493B4804F090
:1033900013F83888FDF794FC082201462046FEF712
:1033A0008FFA2146354804F01BF8204604F01CF93A
:1033B0003248394D03F06AFB336833F002020AD118
:1033C0003649204604F050F92046FEF70BF8204617
:1033D00004F00AF92B68012B00F03C85032B7FF4E5
:1033E000D9AE2F49204604F03FF92046FDF7FAFFF9
:1033F000204604F0F9F8CDE6012D00F06983022D96
:1034000000F0B983082C7FF43DADDAF80030B0E568
:10341000002C7FF7BFAE79E5002C7FF7BBAE0B2CFD
:1034200014BF20460020FFF775F96FE5002C7FF7E9
:10343000B1AE0B2C00F02085052C3FF767AD194F7E
:103440004FF000083B4607EB840153F8042B9942E8
:103450009044FAD157F82430002B3FF457AD0025A3
:10346000A90105EB0800FFF743FC57F824300135AC
:10347000AB42F5D84AE500BF1492FF1F4C91FF1FE5
:10348000BC91FF1F6CBF000080C500003A91FF1F78
:10349000B4C3000088C400001495FF1F94C400004A
:1034A000D4C40000F087FF1F1092FF1F0C2C7FF484
:1034B000F5ACDFF8CCA2DAF80030012B3FF730AEE4
:1034C0000025A34CDFF8BC92A24825602A46294675
:1034D0000223C9F80050CAF8003003F0EDFA29467B
:1034E000684604F0C1F86C4628259B49204604F044
:1034F0009BF9013DF9D121469648DFF8648203F03B
:103500006FFF204604F070F82A462946914803F0E0
:10351000D3FAB8F80000FDF707FF01228F498D4864
:1035200003F04AFF2B46D9F800108A480A2203F01C
:103530008DFF29460122874803F0BEFA294620461E
:1035400004F092F828258449204604F06DF9013DE5
:10355000F9D121467F48824E03F042FF204604F015
:1035600043F8012229467B4803F0A6FAFDF704FD43
:10357000B8F800204FF6FB739A4200F27D850722CF
:103580007849744803F018FF3088FDF799FB08224A
:1035900001462046FEF794F921466E4803F020FFCD
:1035A000204604F021F87049204604F05DF82046DA
:1035B000FDF718FF204604F017F8664803F066FA96
:1035C000E8E507226749634803F0F6FED9F80010E2
:1035D00008222046FEF774F921465E4803F000FFFA
:1035E000204604F001F879E52A24F8E4DFF8708138
:1035F000DFF89091B8F800300133A8F8003068E6A1
:10360000002C3FF7C7ACC5E501225849C9F8003086
:1036100068463B60CAF8002004F026F86846FDF7CB
:10362000E1FE684603F0E0FF8EE52A462946494858
:10363000C9F8005003F040FA2946684604F014F82F
:103640006C4628254449204604F0EEF8013DF9D1A6
:103650002146404803F0C4FE204603F0C5FF3D4824
:1036600003F014FA3368012B0CBF41493F4920464F
:1036700003F0FAFF2046FDF7B5FE204603F0B4FF45
:103680003D686DE50024CAF8004034600122002145
:10369000304803F011FA6846002103F0E5FF6C465C
:1036A00028252D49204604F0BFF8013DF9D12146D7
:1036B0002848304D03F094FE204603F095FF336810
:1036C000002B00F09F83012B00F04284022B00F0BE
:1036D0005984032B00F04984042B00F09084052BBF
:1036E00000F07D84062B00F06A84072B00F05784DD
:1036F000082B7FF41CAC2049204603F0C9FF20466C
:10370000FDF770FE204603F06FFF124803F012FA37
:103710000DE4022219490F4803F04EFE39880D4886
:10372000A1F57F41FC3903F0D1FE41E6084F3B682B
:10373000002B7FF421AC022D3FF61EACDFF8208079
:10374000DFF84090B8F80030013BA8F80030C0E541
:103750001492FF1F4C91FF1F6CBF0000B4C3000008
:103760003A91FF1F88C4000010C5000064C4000027
:103770007CC400001495FF1F94C6000090C4000094
:103780001092FF1FBC91FF1F002D40F0AF82DFF8A9
:103790003C93DFF82083FDF7EFFBD9F80010B8F871
:1037A0000000FDF7EDFA00221146BE4803F084F94F
:1037B000B8F80000FDF7A6FD0122BB49B94803F0A7
:1037C000FBFDB8F80000FDF77BFAFDF79BFD6846AE
:1037D000002103F049FF6C462825B449204604F037
:1037E00023F8013DF9D12146AE4803F0F9FD20460A
:1037F00003F0FAFEAE4BAB481D6001222946CAF821
:10380000002003F059F92946204603F02DFF282512
:10381000A649204604F008F8013DF9D12146A14807
:10382000A44E03F0DDFD204603F0DEFE0122294612
:103830009C4803F041F9B8F800204FF6FB739A4218
:1038400000F2D38207229C49964803F0B5FD3088E8
:10385000FDF736FA082201462046FEF731F82146E8
:10386000904803F0BDFD204603F0BEFE93499BE661
:10387000DFF858928E4FDFF83C822AE5002D40F0A9
:103880008B80012B8A4F00F0C783DFF82882DFF896
:103890003C92B8F8000000250223CAF800303D60D1
:1038A000FDF70EFA2A462946C9F800007D4803F0C4
:1038B00003F92946684603F0D7FE6C4628257B4964
:1038C000204603F0B1FF013DF9D12146754803F0D0
:1038D00087FD204603F088FE2A462946714803F0FA
:1038E000EBF8B8F80000FDF70DFD012274496D48B2
:1038F00003F062FDD9F80000FDF704FD294601221E
:10390000684803F0D9F82946204603F0ADFE282583
:103910006649204603F088FF013DF9D12146614800
:10392000644E03F05DFD204603F05EFE0122294651
:103930005C4803F0C1F8B8F800204FF6FB739A42D8
:1039400000F29F8207225F49564803F035FD308818
:10395000FDF7B6F9082201462046FDF7B1FF2146E2
:10396000504803F03DFD204603F03EFE56492046F8
:1039700003F07AFE2046FDF735FD204603F034FEC5
:10398000396848480731C9B2002203F095F8454824
:1039900003F086F8FFF7FEBB012D3FF491AD022D39
:1039A0007FF4C1ABDFF80C81414FDFF82091FDF7C8
:1039B000E3FA0026B8F80000CAF800503E60FDF7B0
:1039C0007FF9FEF7E5F93246C9F80000314635487F
:1039D00003F072F83146684603F046FE6C4628252F
:1039E0003249204603F020FF013DF9D121462D4800
:1039F00003F0F6FC204603F0F7FD2A462946294845
:103A000003F05AF8B8F80000FDF77CFC01222C49BD
:103A1000244803F0D1FCD9F80000FDF7ADFC29469D
:103A20000122204803F048F82946204603F01CFEF6
:103A300028251E49204603F0F7FE013DF9D1214615
:103A4000184803F0CDFC204603F0CEFD29460122A4
:103A5000144803F031F807221A49124803F0ACFC6D
:103A6000D9F80000FEF756FA082201462046FDF775
:103A700027FF21460B4803F0B3FC204603F0B4FDBA
:103A8000D9F800003968FEF7B1FA396805480731FE
:103A9000C9B22A4603F010F8024803F001F8FFF714
:103AA00079BB00BF4C91FF1F34C500006CBF000004
:103AB0001492FF1F3A91FF1F38C5000000BD00009F
:103AC000B4C3000088C40000E8C40000BC91FF1F1C
:103AD000D24ED34F33683968DFF85483D1480B2C6A
:103AE00008BF002403EB8303002204EB43039BB2D3
:103AF0004C1C114633603C6002F0DEFFB8F8000059
:103B0000FDF712FC2A46C849C64803F055FC0023BD
:103B10003168C4480A2203F099FC2A460021C148B2
:103B200002F0CAFF6846002103F09EFD6C4628257E
:103B3000BE49204603F078FE013DF9D12146B9483F
:103B4000BB4E03F04DFC204603F04EFD01222946FA
:103B5000B44802F0B1FFB8F800204FF6FB739A4268
:103B600000F2AB813B68AE4A062B7FF7E0A9002349
:103B70001360FFF7DCB9AA4FDFF8A0923968D9F8D3
:103B80000020DFF8AC82A748C1F106030B2C03EB41
:103B900043034FF0070508BF00249D4022EA0502B9
:103BA00004FA03F31344002223F07F434C1C114614
:103BB000C9F800303C6002F07FFFB8F80000FDF764
:103BC000A1FB01229849974803F0F6FBD9F80000C1
:103BD000FDF7D2FB01220021924802F06DFF6846FA
:103BE000002103F041FD6C4628259049204603F052
:103BF0001BFE013DF9D121468A4803F0F1FB204626
:103C000003F0F2FC01222946864802F055FFB8F87D
:103C100000204FF6FB739A4240F26181D9F8000010
:103C2000FEF778F9082201462046FDF749FE2146B5
:103C30007C4803F0D5FB204603F0D6FC3968784B6E
:103C4000D9F800000629C4BF00211960FEF7CEF99B
:103C500096E6FDF769FBFFF749BBFDF731F8FDF785
:103C600063FBFFF754BBFDF787F92146054620208B
:103C7000FCF7F6FE2846FDF7DDF9FFF78BBA042DB9
:103C80007FF41AA9FFF786BA0323012200216548B1
:103C90003B6002F011FF28226649624803F08CFB6A
:103CA0006549684603F0E0FC6846FDF79BFB684603
:103CB00003F09AFCFEF770FC0028FBD1322004F0E0
:103CC000BDFB584802F0E2FEFFF764BA0733D9B2F1
:103CD000FFF70CBA21462846FDF72AF8574B1888FB
:103CE000FCF7EEFFFDF760F9FFF754BA022D00F084
:103CF0000481012D20D0032D7FF4CDA8FDF73CF9E0
:103D0000FCF7A4FF4E4C454A45490023C0F30E057D
:103D1000444813600B60CAF80030256002F0B6FE1C
:103D2000FDF7AEF9FEF71EFA464B01221A60FFF7C7
:103D300031BA3024FFF753B9FDF71EF9DFF8F080F0
:103D4000364BB8F800001968FDF71AF80022114642
:103D5000344802F0B1FEB8F80000FDF7E5FA2A4653
:103D60003949304803F028FBB8F80000FCF7A8FFF9
:103D7000FDF7DAFA6846002103F076FC6C46282548
:103D80002A49204603F050FD013DF9D1214625483E
:103D900003F026FB204603F027FC214B21481D6041
:103DA00001222946CAF8002002F086FE2946204654
:103DB00003F05AFC28251D49204603F035FD013D3E
:103DC000F9D1214617481A4E03F00AFB204603F0AA
:103DD0000BFC01222946134802F06EFEB8F80020C1
:103DE0004FF6FB739A427FF641AD032217490D4807
:103DF00003F0E2FA31880B48A1F57F41FC3903F06A
:103E000065FB33E51249204603F042FC2046FDF7EE
:103E1000E9FA204603F0E8FB2B6854E4BC91FF1F4D
:103E20001492FF1F4C91FF1FB4C300006CBF000031
:103E30003A91FF1F44C5000070C500000C92FF1F9F
:103E40004092FF1F1892FF1F34C5000040C50000BC
:103E50008CC500009B49204603F006FC2046FDF778
:103E6000C1FA204603F0C0FB3368FFF7B7BA00235E
:103E70003B600721FFF7BFB90024934FA046FFF72F
:103E8000E9BA02229149924803F096FA31889048A3
:103E9000A1F57F41FC3903F019FB67E58D4903F07B
:103EA000F7FB6846FDF79EFA684603F09DFBFDF7B9
:103EB00063F8894B1880FFF76DB902228349844863
:103EC00003F07AFA31888248A1F57F41FC3903F08A
:103ED000FDFA47E600247C4FA046FFF709B8072209
:103EE0007E497B4803F068FA98E6032B3FF6EFA97A
:103EF000043BA8F80030FFF7ECB9DFF8EC91D9F8F3
:103F00000000FEF707F8C9F8000042E4FDF734F8B6
:103F1000734B714A1868108080B2421E1A60FCF719
:103F2000CFFE012200216A486E4C02F0C5FDFEF76B
:103F300019F9674802F0AAFD6B4965480023012280
:103F400023600B60CAF8002002F0A0FDFFF722B941
:103F50006649204603F09CFB2046FDF743FA2046C5
:103F600003F042FB3368FFF7B1BB6149204603F021
:103F70008FFB2046FDF736FA204603F035FB336809
:103F8000FFF7AABB5B49204603F082FB2046FDF702
:103F900029FA204603F028FB3368FFF79ABB5649FD
:103FA000204603F075FB2046FDF71CFA204603F07F
:103FB0001BFB474802F0BEFD3368FFF799BB4F4932
:103FC000204603F065FB2046FDF70CFA204603F07F
:103FD0000BFB3F4802F0AEFD3368FFF786BB484954
:103FE000204603F055FB2046FDF7FCF9204603F080
:103FF000FBFA374802F09EFD3368FFF773BB414977
:10400000204603F045FB2046FDF7ECF9204603F07F
:10401000EBFA3368FFF763BB3B68012B3AD0002B08
:104020007FF733ACDFF8C090D9F80000DFF8A88044
:1040300080B2A8F800002EE4DFF8CCA0DAF8003057
:10404000012B3FF4E8A8022B7EF496AF022D3FF639
:10405000DCA9244F3B684BB9002D0CBF0523062378
:104060003B600CBF0C210D21FFF7C5B85A1E06336B
:104070003A60D9B2FFF7BFB802221449144803F0DE
:104080009BF931881248A1F57F41FC3903F01EFAF3
:10409000FFF789BADFF85090D9F800000328C5D897
:1040A0000438DFF8348080B2A8F80000FFF7F3BBD3
:1040B000032D7EF4F0AE082CDFF84CA07EF4F0AEB9
:1040C000FEF75CBFB8C40000F087FF1F90C400007B
:1040D0004C91FF1F84C500003A91FF1F88C4000067
:1040E0004092FF1F1492FF1FBC91FF1FB0C500003C
:1040F00000C60000D8C5000078C600004CC600000D
:1041000034C6000024C600001092FF1F38B50546D3
:10411000FCF718FC012004F091F92021274803F056
:10412000DDF8C5F307240021244802F0ABFE214648
:10413000224802F0A7FE0121204803F0FDF82021CB
:104140001E4803F0CBF809211C4802F09BFEE9B29F
:104150001A4802F097FE0121184803F0EDF844B325
:104160002021164803F0BAF80621144802F08AFE0E
:104170002146124802F086FE0121104803F0DCF8C7
:1041800020210E4803F0AAF809210C4802F07AFE1B
:1041900001210A4803F0D0F8012320211A460748DC
:1041A00003F0D6F8054802F095FE01460020FCF722
:1041B000BFFDBDE83840FCF7B5BB00BFD091FF1F85
:1041C0002DE9F04FDA4DB5B005F002F92B78C4B205
:1041D000DBB9D84E3368052B17D0032C32D0D64F1D
:1041E0003B78002B42D01B2C00F096817F2C00F0F6
:1041F0001781082C00F014810D2C00F095810A2CF9
:1042000040F0068135B0BDE8F08F402C00F0F08022
:10421000FCF732FD10F0010640F0688121462020B5
:10422000FCF71EFCC54B1A8847F67F639A4200F0E4
:104230006881C34B1888FCF743FD2046FCF7CEFE8F
:10424000032CCCD1BB4A002313602B70FCF794FEE7
:104250000621BC4805F072F9BB4803F0E7F80121DC
:10426000BA4805F06BF935B0BDE8F08F213C5D2C04
:10427000C8D801A353F824F06B4B0000054200009E
:104280000542000005420000054200000542000012
:104290000542000005420000054200000542000002
:1042A000054200000542000005420000F5450000FF
:1042B00005460000054200000542000005420000DE
:1042C00005420000054200000542000005420000D2
:1042D0000542000005420000054200008146000042
:1042E00005420000054200000542000005420000B2
:1042F0009F47000005420000054200000542000003
:10430000054200009148000055490000794A00002C
:10431000134A000005420000C345000005420000AA
:1043200005420000E54A0000AF49000005420000D8
:10433000914B0000054200000542000005420000CC
:10434000CD450000C9450000054200007F4B00003C
:1043500005420000674F0000C94F00000542000001
:104360000542000005420000054200000542000031
:104370000542000005420000054200000542000021
:104380000542000005420000994B00000542000074
:104390000542000005420000B7450000054200004C
:1043A00005420000854C0000054200000542000067
:1043B000934D00000542000005420000F94D000049
:1043C000B145000005420000054200000542000022
:1043D000034E0000054200000542000005420000B7
:1043E000054200000542000005420000494F000060
:1043F000504E5748504F0023102133602B7005F06A
:104400009DF8514803F012F83B78002B3FF42EAF93
:104410002146504803F016FA204605F013F9F1E65C
:10442000DFF83081D8F8081000293FF4EBAE0139ED
:10443000404603F00BFB082005F004F9202005F0AE
:1044400001F9082005F0FEF80D2C7FF4DBAE42499F
:10445000404803F05BFA002840F0E8853A48DFF86E
:1044600008A13E4C02F0E2FF4FF0FF33CAF80030E3
:10447000A146002605E00136282E09F1100900F0BA
:1044800088863549484603F041FA0028F3D048466B
:104490003049013603F072F9CAF80060FCF7ECFB12
:1044A000C30700F18C86FCF7D1FB27AC2C49814671
:1044B000204603F0D9F82146264803F057FA06466D
:1044C000204603F091F8002E00F0CD8525491E48C6
:1044D00002F086FF1C4802F0A9FF01211B4805F0ED
:1044E0002DF81D491B4803F059F98BE6FCF744FDF4
:1044F000214606462020FCF7B3FA3046FCF79AFD29
:104500006BE630462146FCF713FC0D4B1888FCF790
:10451000D7FBFCF749FD60E604F05AFF5B2825D085
:10452000C0B205F08FF86DE6DFF828808FE700BF96
:104530004892FF1F1495FF1FEE87FF1F8C92FF1FED
:104540000C92FF1FC8C600001488FF1FD0C60000D1
:10455000B4C600006C91FF1F00BD00009492FF1FC5
:104560002CC700002891FF1FCC91FF1F04F030FFE3
:10457000412800F0528742287FF444AEC94A1368AC
:104580000133272BC8BF2723C749C848136001EB55
:10459000031103F0F3F80521C54804F0CFFF012112
:1045A000C44804F0CBFFC149C34802F019FF29E613
:1045B0000120FDF7C9FE0220FDF7C6FEBE4802F04D
:1045C00035FFFCF75DFD1DE6FCF7A0FDFCF7D4FC14
:1045D0002B78BA4E1BB93368052B7FF413AE10212C
:1045E000B74804F0ABFFB44802F020FF00232B7063
:1045F000336007E60121B34804F0A0FFAE4802F0A3
:1046000015FFFFE501230F21AF482B7004F096FF43
:10461000A94802F00BFF00221146AC4827AC02F07B
:104620004BFA2046002103F01FF82825A849204610
:1046300003F0FAF8013DF9D12146A44802F0D0FE7A
:10464000204602F0D1FF29460122A04802F034FAA8
:104650002946204603F008F828259D49204603F006
:10466000E3F8013DF9D12146984802F0B9FE204611
:1046700002F0BAFF2A462946944802F01DFAC1E525
:10468000DFF850928C4FD9F800301193119E00251D
:1046900027AC08E0D9F800301093109BBA689B1B38
:1046A000934280F0FE85C5F10601601904F0DAFE40
:1046B0000544052D8049EDD9274628A82246002526
:1046C00012F8013B2D01612BA5F1570100F29D84E9
:1046D000412BA5F1370100F29884303D1D44824200
:1046E000EED1C5F30F250DF19D020DF1A1000026BD
:1046F00012F8013F3601612BA6F1570100F28284C6
:10470000412BA6F1370100F27D84303E1E448242E7
:10471000EED1D9F800301393139B0193DFF898A1E1
:10472000B6B24FEA850B4FF000080AE0D9F8003026
:104730001293129B019ADAF808109B1A8B4280F0B0
:10474000BC85C8EB0B0104EB080004F08BFE804431
:10475000C3455948EAD8002D3FF454AD4FF0000846
:1047600006EB080080B23C1D002117F8013B09014F
:10477000612BA1F1570200F22E84412BA1F13702E7
:1047800000F2298430391944BC42EED108F1010805
:10479000FCF7F6FA1FFA88F39D42E1D832E5DFF81C
:1047A0003491454FD9F800301593159E002527AC5C
:1047B00008E0D9F800301493149BBA689B1B93420D
:1047C00080F08285C5F10601601904F04BFE0544B6
:1047D000052D3949EDD928A8002314F8012B1B0118
:1047E000612AA3F1570100F21384412AA3F1370192
:1047F00000F20E84303B13448442EED1C3F30F2405
:104800000DF19D020DF1A100002612F8013F3601C5
:10481000612BA6F1570100F2FE83412BA6F137016F
:1048200000F2F983303E1E449042EED1B6B2002C25
:104830003FF4E8AC00273B4623AD11E0FCF740FA1B
:1048400001462846FCF7B2FC29461B4802F0C8FD89
:10485000284602F0C9FE0137BBB29C427FF6D2ACBB
:10486000F21803F0070392B2072B1046E6D1FCF7CB
:1048700027FA01462846FCF799FC29460E4802F023
:10488000AFFD0D4802F0D2FD284602F0ADFEE2E792
:10489000DFF84090084FD9F800300993099E0025B1
:1048A00027AC22E0CC91FF1F9492FF1F6C91FF1F59
:1048B00024C70000D0C600001488FF1F1495FF1FF6
:1048C000B4C6000078C30000D4C600004C91FF1F9E
:1048D0006CBF00002495FF1FD9F800300893089B97
:1048E000BA689B1B934280F0CA84C5F10801601925
:1048F00004F0B8FD0544072DC849EDD928A90020CA
:1049000014F8013B0001612BA0F1570200F28C83E7
:10491000412BA0F1370200F2878330381844A142BE
:10492000EED10DF19F020DF1A305002112F8013F18
:104930000901612BA1F1570400F25A83412BA1F127
:10494000370400F25583303919449542EED1FCF713
:1049500017FA57E4DFF8D492B04ED9F800300B9331
:104960000B9D27AC08E0D9F800300A930A9BB26887
:104970005B1B934280F087840121204604F072FD86
:10498000A6490028EFD09DF89C003038FCF780F94C
:10499000014623A8FCF70AFC23A9A04802F020FD49
:1049A0009E4802F043FD23A802F01EFE2AE4DFF831
:1049B0007C929A4FD9F800300793079E002527ACC8
:1049C00008E0D9F800300693069BBA689B1B934217
:1049D00080F06F84C5F10401601904F043FD0544C3
:1049E000032D8E49EDD928A9002014F8013B0001C0
:1049F000612BA0F1570200F2F982412BA0F137029E
:104A000000F2F48230381844A142EED1FCF758F994
:104A1000BEE7DFF81892814FD9F800300593059E64
:104A2000002527AC08E0D9F800300493049BBA684D
:104A30009B1B934280F02B84C5F10401601904F0A4
:104A400011FD0544032D7549EDD928A9002014F85E
:104A5000013B0001612BA0F1570200F2C582412BFE
:104A6000A0F1370200F2C08230381844A142EED1E2
:104A7000FCF7E0FAFFF7C6BBDFF8B091674FD9F853
:104A800000300D930D9E002527AC08E0D9F80030CA
:104A90000C930C9BBA689B1B934280F00684C5F173
:104AA0000501601904F0DEFC0544042D5B49EDD9D5
:104AB0009DF89C0028AD3038002114F8013F090111
:104AC000612BA1F1570200F2AB82412BA1F1370219
:104AD00000F2A68230391944AC42EED1FCF728F935
:104AE000FFF790BB27AC2A2322460D214B4802F04A
:104AF00017FD9DF89C30302B074600F01D85312BAB
:104B00007FF480AB9DF89D204548303AD2B2002119
:104B100023AD01F0D1FF2846002102F0A5FD282693
:104B20004049284602F080FE013EF9D129463C4822
:104B300002F056FC284602F057FD9DF89D203848AB
:104B4000303A3146D2B201F0B7FF022F7FF75AABAD
:104B5000013F3C440DF19D0515F8011F304802F05E
:104B60002FF8AC42F8D1FFF74DBB642003F066FC90
:104B7000FCF762FC642003F061FCFFF743BB2821D3
:104B8000294804F0DBFC254802F050FCFFF73ABB53
:104B9000FCF70AFAFFF736BBDFF890901F4FD9F801
:104BA00000301993199E002527AC08E0D9F8003091
:104BB0001893189BBA689B1B934280F06C83C5F1D5
:104BC0000401601904F04EFC0544032D1349EDD98E
:104BD00028A9002714F8013B3F01612BA7F15702D8
:104BE00000F20882412BA7F1370200F20382303F26
:104BF0001F448C42EED1BFB2B7F5017F4FEAC71414
:104C0000A7F104082CBF4FF0570A4FF0530A04F1E4
:104C10008009C4EBC81823AD1FAE26E01488FF1F1F
:104C20002092FF1F6CBF0000E4C600002495FF1F08
:104C300003F00AF901462846FCF7E4FA2946304613
:104C400002F0A4FD284602F0CFFC04F00F030F2B66
:104C50003146C94800F0C28102F0C2FB013430463F
:104C600002F0C2FC4C453FF4CDAA0021304602F0D0
:104C7000FBFC032F08EB04012046D9D95046FEF770
:104C800083F8D7E7DFF80093BB4FD9F800301793CC
:104C9000179E002527AC08E0D9F800301693169B24
:104CA000BA689B1B934280F0F982C5F10601601936
:104CB00004F0D8FB0544052DAF49EDD928A90027FC
:104CC00014F8013B3F01612BA7F1570200F29681D6
:104CD000412BA7F1370200F29181303F1F448C42F3
:104CE000EED1C7F30F270DF19D020DF1A1004FF09A
:104CF000000812F8013F4FEA0818612BA8F157018C
:104D000000F28B81412BA8F1370100F28681A8F1D6
:104D1000300898448242ECD11FFA88F8002F3FF403
:104D200071AA002623AD08EB0604A4B2214628464A
:104D3000FCF786FA2946904802F052FB284602F01A
:104D400053FC2046FBF7BCFF012184B28B4804F0E2
:104D5000F5FB21462846FCF773FA2946864802F0FF
:104D60003FFB284602F040FC082221462846FCF77B
:104D7000A7FD2946804802F033FB7F4802F056FB2E
:104D80000136284602F030FCB3B29F42CBD8FFF781
:104D900039BADFF8F491784FD9F800300393039EC5
:104DA000002527AC08E0D9F800300293029BBA68CE
:104DB0009B1B934280F06082C5F10401601904F0EE
:104DC00051FB0544032D6C49EDD928A9002014F8A6
:104DD000013B0001612BA0F1570200F22381412B1E
:104DE000A0F1370200F21E81303818448C42EED117
:104DF000FCF7F4F8FFF706BA0120FDF7A5FAFFF774
:104E000001BADFF884915C4FD9F800301B931B9EE8
:104E1000002527AC08E0D9F800301A931A9BBA682D
:104E20009B1B934280F05482C5F10501601904F088
:104E300019FB0544042D5049EDD90DF1A008224677
:104E4000002512F8013B2D01612BA5F1570100F25D
:104E5000D380412BA5F1370100F2CE80303D1D44B7
:104E60004245EED12D0B2246002612F8013F3601B5
:104E7000612BA6F1570100F2C380412BA6F1370147
:104E800000F2BE80303E1E444245EED1B6B2D9F8A3
:104E900000302393B6F5017F2CBF57235323DDF851
:104EA0008CB0354F01934FF0000A09E0D9F800307B
:104EB0001F931F9BB968CBEB03038B4280F00182E9
:104EC000CAF1200104EB0A0004F0CCFA8244BAF1E2
:104ED0001F0F2948EAD930230DF19B098DF8BD3009
:104EE0008DF8BC3048460DF1C00EA8F10401002336
:104EF00011F801CB1B01BCF1610FA3F1570267D878
:104F0000BCF1410FA3F1370262D8303B6344414505
:104F1000EED101F102081B0AC64500F8013FE4D1B9
:104F2000032E00F28282ADB205EBC6052D010DF114
:104F3000AB0619F8011FC4EB0900284402F09EFFDC
:104F40004E45F6D1FFF75EB9012410210C483C70A4
:104F500004F0F4FA084802F069FA2146094804F01E
:104F6000EDFAFFF74FB9DFF82090034ED9F8003083
:104F70000F930F9D27AC12E01488FF1F6CBF000039
:104F800010C70000D0C600002495FF1FD9F80030DC
:104F90000E930E9BB2685B1B934280F06A810121E5
:104FA000204604F05FFACC490028EFD09DF89C30F1
:104FB000302B00F0AE82312B00F09882322B7FF440
:104FC00021A9FBF759FEE3E4FCF78AF8FFF71AB9C9
:104FD0000CEB02039BE79918FFF7D6BB02F000FA2F
:104FE000BD4802F023FA39E698183FE598180BE51A
:104FF0001919AAE49F18FCE55D1831E79F186EE6C1
:105000005E1841E75E18FFF782BB5D18FFF767BBCC
:105010005318FFF7F1BB5E1806E403EB010879E6CD
:10502000991859E59818E1E6981878E4AB49AC4826
:1050300002F06CFC00287FF411AAA949A94802F0EB
:105040009DFB0521A84804F079FA0121A74804F046
:1050500075FAA449A04802F0C3F9A049A04802F09B
:105060009DFBFFF7CFB8A249204602F0FDFA21468A
:105070009C4802F07BFC06462046C9F30E0902F06C
:10508000B3FA002E00F09F8006222021954802F0FE
:105090009FFC94490546204602F00CFB0521204662
:1050A000FCF708F986B2204602F09EFA002DC0F205
:1050B000B0818C49204602F0FDFA691C2046FCF7BD
:1050C000F9F88246204602F08FFABAF1000FD04676
:1050D00040F30883002531462046FCF7B1F821460D
:1050E0007D4802F07DF9204602F07EFA3046FBF75B
:1050F000E7FD771C012186B27E4804F01FFA314695
:105100002046FCF79DF82146734802F069F92046D5
:1051100002F06AFA082231462046FCF7D1FB21460C
:105120006D4802F05DF901356B4802F07FF9ADB2D0
:105130002046BFB202F058FA45453E46CBDB6C49EB
:1051400023A802F091FA39461FA8FCF779F81FA9A5
:1051500023A802F09BFB674902F0A0FB51460546DD
:105160002046FCF76DF82146284602F08FFB0146E9
:105170005B4802F003FB204602F036FA1FA802F05B
:1051800033FA23A802F030FA4846FBF799FDFFF7FF
:10519000A4B9DAF8003001337FF480A9564E2046D6
:1051A0001034214602F0EAFAA642F8D128234D49EC
:1051B0005148CAF8003002F0E1FAFFF76FB9FBF787
:1051C000DBFEFFF770B94D49204602F04DFA21464B
:1051D000444802F0CBFB0646204602F005FA002EBA
:1051E00000F08E80062220213E4802F0F1FB3D496E
:1051F0000546204602F05EFA05212046FCF75AF8E3
:1052000087B2204602F0F0F9002D80F21A814FF0AB
:10521000100AD046002539462046FCF711F82146F1
:105220002D4802F0DDF8204602F0DEF93846FBF7A3
:1052300047FD7E1C012107462E4804F07FF9B9B2D4
:105240002046FBF7FDFF2146234802F0C9F801354F
:10525000214802F0EBF8ADB22046B6B202F0C4F934
:1052600045453746D7DB254923A802F0FDF93146ED
:105270006AE701230B7399E601230B73A5E501236C
:105280000B73FFF73BBB01230B73FFF77CBB0123C1
:105290000B73FFF7DABB01230B7399E401230B7344
:1052A0000CE501230B73FFF707BA01230B73FFF71C
:1052B000FFBB01230B73FFF796BB01230373FFF7BB
:1052C0004ABA0123037306E601230B73FFF783BA7F
:1052D00001230B73B1E500BF1488FF1F00BD000060
:1052E0003C91FF1F6C91FF1F24C70000D0C6000037
:1052F00034C700006CBF00000495FF1F3CC70000CE
:10530000B049204602F0B0F92146AF4802F02EFB2A
:105310000646204602F068F9002E00F0A580032220
:105320002021A94802F054FBA7490646204602F076
:10533000C1F902212046FBF7BDFF0546204602F0D9
:1053400053F9002E80F22C81ADB29E4923A802F0C1
:105350008BF90A2229461FA802F0CAF91FA923A81F
:1053600002F094FA994902F099FA07462846FBF7A9
:105370008FFC01462046FBF763FF2146384602F0CA
:1053800085FA0146924802F02BF8914802F04EF857
:10539000204602F029F91FA802F026F923A802F0FE
:1053A00023F9002E8749C0F29F811FA802F05CF903
:1053B000691C01F003011BA80A2202F099F91BA93C
:1053C0001FA802F063FA834902F068FA7E49054695
:1053D00023A802F06FF9711C23A8FBF76BFF0146AD
:1053E0002046FBF72DFF2146284602F04FFA0146E2
:1053F000794802F0C3F9204602F0F6F823A802F03B
:10540000F3F81BA802F0F0F81FA802F0EDF8FFF780
:1054100064B84FF0100AD0465CE6704A1368013B4E
:105420007FF5B2A80023FFF7AFB8043EADB205EB9D
:10543000C6010901224601981023FDF72BFCFEF757
:10544000E1BE6149204602F035F9691C2046FBF7B0
:1054500031FF8246204602F0C7F8BAF1000FD0466D
:105460003FF7D8AE3E46FEE65D49204602F0FCF826
:105470002146554802F07AFA0646204602F0B4F872
:10548000002E00F0B580022220214F4802F0A0FA41
:10549000051E0CDB4C49204602F00CF9691C204625
:1054A000FBF708FFFBF70CFC204602F09DF84D4986
:1054B000204602F0D9F8FBF7C9FBC0F30E0123A880
:1054C000FBF7BEFE23A9204602F0E0F90146404862
:1054D000FBF70CFA23A802F087F8204602F084F8C4
:1054E00041493D4802F05AF9FEF7F7BFFBF7AEFB22
:1054F000014623A8FBF75AFE23A9354801F070FFA7
:10550000334801F093FF23A802F06EF89DF89C3019
:1055100054E5FBF785FB014623A8FBF747FE23A9CB
:105520002B4801F05DFF2A4801F080FF23A802F01C
:105530005BF89DF89C303EE59DF89D202B48303A65
:10554000D2B2002123AD01F0B7FA2846002102F0C3
:105550008BF828261F49284602F066F9013EF9D14A
:105560002946224801F03CFF284602F03DF89DF80C
:105570009D201E48303A3146D2B201F09DFA022FEA
:105580000ADD7E1E26440DF19D0515F8011F174802
:1055900001F016FBAE42F8D19DF89C30FFF7AFBA90
:1055A0000949204602F086F8711C2046FBF782FE6E
:1055B000ADB201462846FBF7BBFB204602F014F8CB
:1055C000C3E600BF90C400006C91FF1F44C70000F9
:1055D0001488FF1F6CBF00003C91FF1FCC91FF1F80
:1055E000FCBF000048C7000020BF00004C91FF1F17
:1055F000D749204602F038F82146D64802F0B6F9DD
:105600008246204601F0F0FFBAF1000F00F08680DC
:10561000374623AD1FAED049284602F025F80A22AE
:105620003946304602F064F83146284602F02EF939
:10563000CA4902F033F980463846FBF729FB014698
:105640002046FBF7FDFD2146404602F01FF90146CA
:10565000C34801F0C5FEC24801F0E8FE204601F053
:10566000C3FF304601F0C0FF0137284601F0BCFF00
:10567000042FD0D1BB49204601F0F6FFFBF7E6FA34
:10568000C0F30E012846FBF7DBFD2946204602F059
:10569000FDF80146B248FBF729F9284601F0A4FFBE
:1056A000204601F0A1FFB049204601F0DDFFFBF7E5
:1056B000CDFA0A22C10B284602F02EF829462046D0
:1056C00002F0E4F80146A648FBF710F9284601F07D
:1056D0008BFF204601F088FFA449A54802F05EF840
:1056E000FEF7FBBE37462AE5204601F0BDFF691CE8
:1056F00001F003010A2223A801F0FAFF23A92046A2
:1057000002F0C4F801469A4802F038F823A801F0E4
:105710006BFF204601F068FFFEF7DFBE954920468B
:1057200001F0A2FF21468B4802F020F98246204674
:1057300001F05AFFBAF1000F4CD005222021854814
:1057400002F046F983490646204601F0B3FF0421E2
:105750002046FBF7AFFD0546204601F045FF002E31
:1057600080F28B80ADB2834923A801F07DFF1FA892
:105770002946FBF765FD1FA923A802F087F87749A2
:1057800002F08CF807462846FBF79AFA01462046B5
:10579000FBF756FD2146384602F078F8014670487E
:1057A000FBF7A4F8204601F01FFF1FA801F01CFF23
:1057B00023A801F019FF4846FBF782FA002E6D4935
:1057C000C0F2B5801FA801F04FFF691C1BA8FBF7B2
:1057D00037FDF4E56849204601F046FF21465D4863
:1057E00002F0C4F80646204601F0FEFE002E55D019
:1057F00005222021574802F0EBF85649074620467B
:1058000001F058FF04212046FBF754FD05462046D1
:1058100001F0EAFE002F80F29280ADB229462046C8
:10582000FBF70EFD21464E4801F0DAFD204601F05F
:10583000DBFE2846FBF744FA504985B24848FBF79F
:1058400047F829462046FBF7FBFC2146444801F077
:10585000C7FD204601F0C8FE082229462046FCF775
:105860002FF821463E48FBF741F8204601F0BCFEE8
:105870004846FBF725FAFEF730BE3649204601F0D0
:1058800019FF711C2046FBF715FDADB201462846F5
:10589000FBF776FA204601F0A7FE64E73849204678
:1058A00001F0E2FE21462B4802F060F80646204651
:1058B00001F09AFE002E00F085802649204601F076
:1058C000F9FE03212046FBF7F5FC0546204601F0D2
:1058D0008BFEA8B2FBF7AEFB2A492148FBF710F874
:1058E0002949234801F05AFFFEF7F7BD2749204612
:1058F00001F0BAFE2146174802F038F80546204666
:1059000001F072FE002D00F019841249204601F0CA
:10591000D1FE04212046FBF7CDFC0546ADB2204662
:1059200001F062FE2946282002F060FC174920465B
:1059300001F09AFE691C23A8FBF782FCDEE61FAE8D
:105940003A463046034902F079F8574624E000BF52
:1059500050C700006C91FF1F90C4000044C70000B6
:105960001488FF1F48C7000054C7000000BD000096
:105970003C91FF1F60C7000068C700006CBF0000BB
:1059800070C7000074C700007CC7000060C800003A
:105990000137B7F5803F35D0082239462046FBF75E
:1059A0008FFF3146204601F0A3FF8046204601F0DC
:1059B0001BFEB8F1000FEBD0ADB239462846FBF71D
:1059C000DFF920E0BC49204601F04EFE2146BB48ED
:1059D00001F0CCFF0646204601F006FE86B3012307
:1059E000B6492B70204601F065FE04212046FBF7E6
:1059F00061FC0546204601F0F7FDA8B2FBF71AFB53
:105A0000AF496AE7ADB2AF49204601F02DFE23A8A9
:105A1000691CFBF715FC23A9204601F037FFAA49B2
:105A200001F03CFF0146A94801F0A8FE23A801F0BF
:105A3000DBFD204601F0D8FD304601F0D5FDEDE656
:105A4000A349204601F010FE21469C4801F08EFF3C
:105A50000646204601F0C8FD7EB1FBF757FBFBF779
:105A60008BFA2B789B4E1BBB3368052B20D09A49B1
:105A7000964801F093FEFEF730BD9849204601F0AC
:105A8000F3FD21468D4801F071FF0646204601F0E6
:105A9000ABFDEEB1FBF770FA2B788E4E83B933680D
:105AA000052B0DD08E49894801F078FEFEF715BD13
:105AB0008C498D48FAF724FF00232B703360D6E71A
:105AC00088498948FAF71CFF00232B703360E9E707
:105AD0008349204601F0C8FD2146784801F046FF81
