:1000000000800020BD010000AD830000658300007A
:100010006583000065830000658300006583000040
:10002000658300006583000065830000AD830000E8
:10003000AD83000065830000119C0000159D000049
:10004000AD830000AD830000AD830000AD830000F0
:10005000AD830000AD830000AD830000AD830000E0
:10006000AD830000AD830000AD830000AD830000D0
:10007000AD830000AD830000AD830000AD830000C0
:10008000AD830000AD830000AD830000AD830000B0
:10009000AD830000AD830000AD830000AD830000A0
:1000A000AD830000AD830000AD830000AD83000090
:1000B000AD830000AD830000AD830000AD83000080
:1000C000AD830000AD830000AD830000AD83000070
:1000D000AD830000AD830000AD830000AD83000060
:1000E000AD830000AD830000AD830000AD83000050
:1000F000AD830000519D0000AD8300007D9E000097
:10010000AD830000A99F0000AD830000AD83000017
:10011000AD830000AD830000AD830000AD8300001F
:10012000AD830000AD830000AD830000AD8300000F
:10013000AD830000AD830000AD830000AD830000FF
:10014000AD830000AD830000AD830000AD830000EF
:10015000AD830000AD830000AD830000AD830000DF
:10016000AD830000C58A0000AD830000AD830000B0
:10017000AD830000AD830000AD830000AD830000BF
:10018000AD830000AD830000AD830000AD830000AF
:10019000AD830000AD830000AD830000AD8300009F
:1001A000AD830000AD830000AD830000AD8300008F
:1001B000AD830000AD830000AD830000564B4CF2D0
:1001C000205210B51A804DF628121A8000BF00BFC9
:1001D00008F0F0F8514B4FF010621A60504A9A60E4
:1001E000504ADA60504A136813F4807304D14F49BF
:1001F0000B604FF4A85313604D4B1A78110703D5C9
:100200001A7842F008021A704A4B4B492A221A7097
:100210004A4A4B4B8B4204D252F8040F43F8040B6A
:10022000F8E7484B484900228B4202D243F8042B9E
:10023000FAE74649464A002352F8230041F82300D2
:1002400001336F2BF8D1434B434A802103F8011B44
:100250009342FBD1414B3D4A1A60414B8A221A70AE
:10026000A3F5805324225A70A0221A709A7992071B
:10027000FCD59A79D406FCD43A4A937903F00C035E
:10028000082B384BF9D105221A7143225A719A79F9
:100290009006FCD5334A9179324B4906FBD5324A58
:1002A0004FF0817111600521516020221A709A79F6
:1002B00002F00C020C2AFAD12C4B2D4A1A602D4B5D
:1002C0002D4A1A6000225A60072243F8042C2B4A58
:1002D000C3F80C2D62B608F0ABFA144B1B68DA07B2
:1002E00005D5274808F01AF9264B274A1A60274BEC
:1002F0001B785B0609D5234C234B22689A4204D114
:100300001F4808F00BF9002323600AF0F7F908F002
:1003100057F807F085FFFEE70E20054030800440C7
:10032000823F04000100002B10D0034014D0034092
:1003300002D0074000E007407892FF1F84D0000001
:100340002087FF1F7892FF1F8099FF1F0082FF1FE9
:100350000000000000E400E05FE400E008ED00E0E1
:1003600000500640004006404480044004800440A1
:10037000C010050014E000E03F190100000020203B
:10038000996DD85C1CE00340A5C3945A00F0074067
:10039000FFFFFFFFFFFFFFFFFFFFFFFFFFFFFFFF6D
:1003A000FFFFFFFFFFFFFFFFFFFFFFFFFFFFFFFF5D
:1003B000FFFFFFFFFFFFFFFFFFFFFFFFFFFFFFFF4D
:1003C000FFFFFFFFFFFFFFFFFFFFFFFFFFFFFFFF3D
:1003D000FFFFFFFFFFFFFFFFFFFFFFFFFFFFFFFF2D
:1003E000FFFFFFFFFFFFFFFFFFFFFFFFFFFFFFFF1D
:1003F000FFFFFFFFFFFFFFFFFFFFFFFFFFFFFFFF0D
:10040000FFFFFFFFFFFFFFFFFFFFFFFFDEF9FFFF23
:1004100010B5054C237833B9044B13B10448AFF33E
:1004200000800123237010BD7892FF1F00000000A0
:1004300088D00000084B10B51BB108490848AFF33D
:1004400000800848036803B910BD074B002BFBD0A0
:10045000BDE81040184700BF000000007C92FF1F5D
:1004600088D000007892FF1F0000000038B5054CCE
:10047000A4F520752046103C07F040FAAC42F9D1B3
:1004800038BD00BF6C96FF1F2DE9F04FADF50B7D19
:1004900007F03CFE17221621C248C34FC34C06F09A
:1004A000E1FEDFF890E3FF2600254FF0170B4FF039
:1004B000160A4FF015094FF014088DE840077046F2
:1004C000CDF810B032468EF804500A230421CEF83D
:1004D000007006F003FEDFF860E3CDF810B032469E
:1004E00070460F238DE8400704218EF80450CEF8A3
:1004F000007006F0F3FDAE4982A807F03FFA82A92A
:1005000086A807F061FAAB497EA807F037FA7EA902
:1005100086A807F045FBA84906467AA807F02EFAF8
:100520007AA9304607F03CFBA449064676A807F0B6
:1005300025FA76A9304607F033FBA149064672A892
:1005400007F01CFA72A9304607F02AFB9D490646BF
:100550006EA807F013FA6EA9304607F021FB9A49FE
:1005600006466AA807F00AFA6AA9304607F018FB9F
:100570009649064666A807F001FA66A9304607F0D4
:100580000FFB9349064662A807F0F8F962A93046C6
:1005900007F006FB8F4906465EA807F0EFF95EA953
:1005A000304607F0FDFA8C4906465AA807F0E6F9EE
:1005B0005AA9304607F0F4FA8849064656A807F0CB
:1005C000DDF956A9304607F0EBFA8549064652A8F0
:1005D00007F0D4F952A9304607F0E2FA81490646FD
:1005E0004EA807F0CBF94EA9304607F0D9FA7E495C
:1005F00006464AA807F0C2F94AA9304607F0D0FAE1
:100600007A49064646A807F0B9F946A9304607F0E8
:10061000C7FA7749064642A807F0B0F942A9304622
:1006200007F0BEFA734906463EA807F0A7F93EA9AF
:10063000304607F0B5FA704906463AA807F09EF929
:100640003AA9304607F0ACFA6C49064636A807F0DE
:1006500095F936A9304607F0A3FA6949064632A84B
:1006600007F08CF932A9304607F09AFA6549064638
:100670002EA807F083F92EA9304607F091FA6249B7
:1006800006462AA807F07AF92AA9304607F088FA20
:100690005E49064626A807F071F926A9304607F0FC
:1006A0007FFA5B49064622A807F068F922A930467E
:1006B00007F076FA574906461EA807F05FF91EA90B
:1006C000304607F06DFA544906461AA807F056F965
:1006D0001AA9304607F064FA5049064616A807F0F2
:1006E0004DF916A9304607F05BFA4D49064612A8A7
:1006F00007F044F912A9304607F052FA4949064674
:100700000EA807F03BF90EA9304607F049FA464912
:1007100006460AA807F032F90AA9304607F040FA5F
:100720004249064606A807F029F906A9304607F00F
:1007300037FA01463E4807F047F906A807F0DEF809
:100740000AA807F0DBF80EA807F0D8F812A807F0FF
:10075000D5F816A807F0D2F81AA807F0CFF81EA807
:1007600007F0CCF822A807F0C9F826A807F0C6F8C9
:100770002AA807F0C3F82EA807F0C0F832A807F09F
:10078000BDF836A807F0BAF83AA807F0B7F83EA8BF
:1007900007F0B4F842A807F0B1F846A807F0AEF8A1
:1007A0004CE000BF2C93FF1F30CD0000FC93FF1FD7
:1007B000B8BC0000E8BC000014BD000048BD00004B
:1007C00084BD0000B8BD0000DCBD000018BE000004
:1007D00068BE000098BE0000E8BE000020BF000018
:1007E00044BF000068BF000090BF0000CCBF000005
:1007F00000C0000034C0000060C0000088C00000DD
:10080000BCC00000F8C0000018C100003CC10000DE
:1008100074C10000ACC10000DCC1000020C20000B7
:1008200064C20000A8C20000E0C2000008C30000CB
:100830009492FF1FA892FF1F8893FF1F4AA807F0FA
:100840005DF84EA807F05AF852A807F057F856A8D6
:1008500007F054F85AA807F051F85EA807F04EF8D0
:1008600062A807F04BF866A807F048F86AA807F0F6
:1008700045F86EA807F042F872A807F03FF876A88E
:1008800007F03CF87AA807F039F87EA807F036F8A8
:1008900086A807F033F882A807F030F8144A154903
:1008A000154809F019FF2946144807F067F8104A5F
:1008B0001049124809F010FF2946114807F05EF868
:1008C0000B4A0C490E4809F007FF04F52075204635
:1008D0000021103407F052F8AC42F8D1044A09491B
:1008E000002009F0F9FE0DF50B7DBDE8F08F00BF8B
:1008F0002087FF1FFD7800009492FF1FCC92FF1FFE
:100900007893FF1F6D04000070B5044608460D463D
:100910000AF0D6FE23680246294620465B68BDE8F9
:100920007040184738B5054606F0E4FE04462846F0
:1009300006F006FF204438BD38B5044608460D468B
:100940000AF0BEFE2368024629465B6820469847A7
:100950000546204606F0F4FE284438BD08B5064892
:1009600006F03AFE0121162007F00CFF01211720A6
:10097000BDE8084007F006BF2C93FF1F30B40A4BB8
:100980000A4A5A61012500224021094C1D7419763A
:1009900083F820105A769A7683F82120DC61184675
:1009A00030BC06F0DFBC00BF2C93FF1FB093FF1FCD
:1009B000DC92FF1F0A2838B506BF81F0070505F055
:1009C0000705CD43044605F00101002007F0C6FEEF
:1009D000C5F34001012007F0C1FEC5F380010220EC
:1009E00007F0BCFEC5F3C001032007F0B7FE04F01A
:1009F0000101042007F0B2FEC4F34001052007F016
:100A0000ADFEC4F38001082007F0A8FE00210920F4
:100A100007F0A4FE14F008044FF0010112D10620E3
:100A2000182507F09BFE2B46013BFDD106202146F1
:100A300007F094FE013DFDD101210620BDE83840BC
:100A400007F08CBE0720182407F088FE2346013BE0
:100A5000FDD10021072007F081FE013CFDD10121DD
:100A60000720BDE8384007F079BE00BF10B500F0A0
:100A70000F0104460020FFF79DFF21110120FFF721
:100A800099FF21120820FFF795FF21130920BDE8E7
:100A90001040FFF78FBF00BF38B504460D460E204B
:100AA000F921FFF787FF0F210846FFF783FF204654
:100AB000FFF7DCFF00210A20FFF77CFF3024042130
:100AC0000B20FFF777FF2346013BFDD100210B20D0
:100AD000FFF770FF2346013BFDD1DD210E20FFF71C
:100AE00069FF0D210F20FFF765FF2846FFF7BEFFC6
:100AF00004210B20FFF75EFF2346013BFDD10021BF
:100B00000B20FFF757FF013CFDD10A200821FFF71A
:100B100051FF034B1868BDE83840FFF7A7BF00BF7F
:100B20002493FF1F10B5014604460E20FFF742FF35
:100B300021110F20BDE81040FFF73CBF002138B560
:100B40000446084607F01EFE0021012007F01AFEA9
:100B50000021022007F016FE0021032007F012FEFC
:100B600004F00101042007F0F9FDC4F34001052061
:100B700007F0F4FDC4F38001082007F0EFFDC4F393
:100B80000011092007F0EAFD0121062007F0E6FD2B
:100B90000121072007F0E2FD14F008044FF00101E5
:100BA00035D1062007F0DAFD2146062007F0D6FDF4
:100BB0001823013BFDD1204607F0D6FD0546012054
:100BC00007F0D2FD0446022007F0CEFD800040EA87
:100BD0004404032007F0C8FD2C4344EAC00401216B
:100BE0000620C4F10F0407F0B9FD0121002007F031
:100BF000C9FD0121084607F0C5FD0121022007F0CB
:100C0000C1FD0121032007F0BDFD204638BD0720AE
:100C100007F0A4FD0021072007F0A0FD1823013BE9
:100C2000FDD1002007F0A0FD0546012007F09CFD46
:100C30000446022007F098FD800040EA44040320A7
:100C400007F092FD2C4344EAC00401210720C4F1BF
:100C50000F0407F083FDC8E738B50D20FFF76EFFDE
:100C600004460C20FFF76AFF0302052003EB04345F
:100C7000FFF764FF05460420FFF760FF204400EB08
:100C8000051038BD38B51D20FFF758FF04461C205D
:100C9000FFF754FF0302152003EB0434FFF74EFF68
:100CA00005461420FFF74AFF204400EB051038BD2D
:100CB00010B51620FFF742FF04460620FFF73EFF5F
:100CC00000EB041010BD00BFC00010B56730FFF787
:100CD00029FF302404210B20FFF76CFE2346013B43
:100CE000FDD100210B20FFF765FE013CFDD1BDE8E1
:100CF0001040FFF7B1BF00BF4FF6FB7398422BDCEB
:100D000010B5F92104460E20FFF754FE0F210846C6
:100D1000FFF750FE2046FFF7A9FE00210A20FFF74B
:100D200049FE302404210B20FFF744FE2346013BFB
:100D3000FDD100210B20FFF73DFE08210A20FFF71F
:100D400039FE013CFDD1FFF787FF064B04461868CA
:100D5000FFF78CFE204610BDA0F57F40FC38FFF762
:100D6000B3BF00BF2493FF1FC00010B523300C4653
:100D7000FFF7D8FE2046FFF779FE00210A20FFF793
:100D800019FE302404210B20FFF714FE2346013BFB
:100D9000FDD100210B20FFF70DFE013CFDD10A2003
:100DA0000821FFF707FE034BBDE810401868FFF766
:100DB0005DBE00BF2493FF1F4FF6FB72904201D827
:100DC000FFF76ABEA0F57F40FC38FFF7CDBF00BF3C
:100DD0002DE9F04F0023064682468BB00F4646F2BF
:100DE000FF1046F2FF3446F2FF5546F6FF7E37F815
:100DF000132082424FEA430167D0A24200F0848070
:100E0000AA4259D0A2F5CF417839032954D9A2F585
:100E1000D3417839072900F2B08072450AF1010AFE
:100E200003F10203E3D1002546F2FF1B46F2FF382F
:100E300046F2FF5937F815405C454FEA450334D078
:100E4000444536D04C4500F08580A4F5CF42783A31
:100E5000032A0CD9A4F5D3417839072907D946F6D6
:100E6000FF739C4240F083800BB0BDE8F08F3B44A1
:100E70005B8803F48061B3F5007F89B23ED3C3F38E
:100E800008035344FF2B25DC032A0B4446D804F007
:100E90000301304603EBC1210136FFF78DFF023518
:100EA0006B0037F815405C45CAD13B4402355E887B
:100EB000C0E701350135BDE702330AF1010A37F811
:100EC000132082424FEA430197D139440233B1F8EB
:100ED00002A08CE79B1B03F17E00FC2853D8032A59
:100EE00051FA83F32BD804F0030403EBC4213046FA
:100EF00001F580710136FFF75FFFD0E70AA800EB2C
:100F0000430333F8283CBDE7394401334A880AA932
:100F100001EB420222F828AC013368E704F0070134
:100F20000431304603EBC1210136FFF745FF46F699
:100F3000FF739C4205F102057FF47CAF94E704F057
:100F4000070103EBC121304601F504510136FFF7DB
:100F500033FFECE73B440AAA5B8802EB43033046CD
:100F600033F8281C01360135FFF726FFA2E730468B
:100F700021460136FFF720FF9CE772453FF453AF4F
:100F80000AF1010AC8E705220749084806F09EFB56
:100F9000304641F6FF71FFF70FFF4FF47A700BB048
:100FA000BDE8F04F07F0F4BB44C30000A892FF1F58
:100FB00010B508210B203024FFF7FCFC2346013B31
:100FC000FDD100210B20FFF7F5FC013CFDD1034BC7
:100FD0000022BDE810401A70FFF754BEF893FF1FBF
:100FE00008B5FB210E20FFF7E5FC0F210846FFF7AF
:100FF000E1FC06210B20FFF7DDFC00210B20FFF7B1
:10100000D9FC3023013BFDD1014B01221A7008BDF0
:10101000F893FF1F134B10B518603024FFF726FD1F
:1010200000210A20FFF7C6FC2346013BFDD1FB212E
:101030000E20FFF7BFFC0F210846FFF7BBFC06217F
:101040000B20FFF7B7FC00210B20FFF7B3FC013C9E
:10105000FDD108210A20FFF7ADFC034B01221A70D5
:1010600010BD00BF2493FF1FF893FF1F10B5FFF7BB
:10107000FDFCFB210E20FFF79DFC0F210846FFF72A
:1010800099FC302404210B20FFF794FC2346013BFC
:10109000FDD100210B20FFF78DFC013CFDD1044B5D
:1010A0001868FFF7E3FC034B01221A7010BD00BF64
:1010B0002493FF1FF893FF1F08B5FFF7E3FD134BC1
:1010C000FF2118600E20FFF775FC0F210846FFF77F
:1010D00071FC09210A20FFF76DFC06210B20FFF7A8
:1010E00069FC3023013BFDD11021094808F0D0FBF9
:1010F000084806F025FB00210B20FFF75BFC0821C8
:101100000A20BDE80840FFF755BC00BFA893FF1FA9
:101110004CC300001888FF1F08B5FF210E20FFF701
:1011200049FC0F210846FFF745FC07210B20FFF77C
:1011300041FC3023013BFDD100210B20BDE80840DC
:10114000FFF738BC10B584B0FFF732FF0C210A203E
:10115000FFF730FC06210B20FFF72CFC642007F082
:1011600017FB05211A4808F093FB1A4806F0E8FA25
:1011700000210B20FFF71EFC08210A20FFF71AFCB4
:1011800001220021144805F021FE6846002106F0E6
:10119000F5FB28241149684606F0D0FC013CF9D142
:1011A00069460D4806F0A6FA684606F0A7FB2146F8
:1011B0000122094805F00AFE05220549064806F005
:1011C00085FA074B20461C70FFF796FD04B010BD52
:1011D00060C300001888FF1FA892FF1FA4C300006F
:1011E000F893FF1F30B50D4685B00021044606F088
:1011F000C5FBB5F5805F0ED310222946684606F080
:1012000015FC6946204606F095FC684606F076FB1C
:10121000204605B030BD0849204606F08FFCFF2D62
:10122000EAD80549204606F089FC0F2DE4D802498A
:10123000204606F083FCDFE768C3000030B50D46AA
:1012400085B00021044606F099FB0F2D03D809490B
:10125000204606F073FC10222946684606F0E6FB9D
:101260006946204606F066FC684606F047FB2046C5
:1012700005B030BD68C3000030B50D4685B0002113
:10128000044606F07BFBB5F5004F0ED30822294635
:10129000684606F0CBFB6946204606F04BFC6846E4
:1012A00006F02CFB204605B030BD0F49204606F065
:1012B00045FCB5F5805FE9D20B49204606F03EFCBF
:1012C000B5F5007FE2D20849204606F037FC3F2DF5
:1012D000DCD80549204606F031FC072DD6D8024956
:1012E000204606F02BFCD1E768C3000083689942D2
:1012F00070B520D206460D4600242946304606F039
:10130000C9FC03782F2B01D8204670BD29463046F2
:1013100006F0C0FC0378372BF6D82946304606F095
:10132000B9FCB3680278E4000135303C9D421444B6
:10133000E3D3204670BD0024E6E700BF00B585B0CA
:1013400001466846FFF798FF6946044806F0D2F95F
:10135000684606F0D3FA05B05DF804FBA892FF1FBB
:1013600042F20F73984210B5044607D92146002374
:101370000A220E48BDE8104006F0F2B900210B48E1
:1013800006F02EFAB4F57A7FF0D20021074806F075
:1013900027FA632CEAD80021044806F021FA092C28
:1013A000E4D80021014806F01BFADFE7A892FF1FEE
:1013B000B0F5802F10B5044607D32146002308223C
:1013C0001548BDE8104006F0CBB90021124806F0E0
:1013D00007FAB4F5004FF0D200210F4806F000FAEA
:1013E000B4F5805FE9D200210B4806F0F9F9B4F5B5
:1013F000007FE2D20021084806F0F2F93F2CDCD849
:101400000021054806F0ECF9072CD6D80021024847
:1014100006F0E6F9D1E700BFA892FF1F30B5002221
:1014200085B011460546104805F0D0FC68460021FD
:1014300006F0A4FA28240D49684606F07FFB013C1B
:10144000F9D16946084806F055F9684606F056FA9B
:1014500022462146044805F0B9FC2946024806F018
:1014600049F905B030BD00BF8893FF1FA4C3000039
:1014700070B5002484B00121E0B20C4407F082F979
:101480000B2CF8D101210F2007F07CF90121072056
:1014900007F064F90121062007F060F901210D2011
:1014A00007F070F901210C2007F06CF901212046AA
:1014B00007F068F90C2007F041F908210A20FFF72E
:1014C00079FA20460021FFF775FA0021122007F073
:1014D00059F9394B394D3A483A4E00241C600222E2
:1014E000234628212C7005F0CDFD224621463448A4
:1014F00005F06CFC28223449314806F0E7F84FF03B
:10150000FF3507E0348004F50064B4F5004F05F5BD
:10151000006519D02846FFF7EFFB0028F2D1012122
:101520002846FFF749FC2846FFF7E6FB012808BFDD
:1015300034802846002104F50064FFF73DFCB4F533
:10154000004F05F50065E5D1012200211C4805F09A
:101550003DFC0D221D491A4806F0B8F8318818489C
:1015600006F03EF90D221A49154806F0AFF80020A2
:10157000FFF7C2FB002302222821164805F082FD56
:1015800001220021134805F021FC282212491148AC
:1015900006F09CF81149684606F004FA6846FFF721
:1015A0003DFF684606F0AAF941F288310C4806F082
:1015B0003FF904B070BD00BFF493FF1FAE93FF1F4F
:1015C000A892FF1FA492FF1F6CC3000098C30000E5
:1015D000A8C300008893FF1FB8C30000E4C3000045
:1015E0001888FF1F012910B5044609D002290BD025
:1015F00003290CBF0649074906F0C0F9204610BD73
:10160000054906F0BBF9F9E7044906F0B7F9F5E733
:10161000FCC40000B8C000000CC4000010C40000EE
:10162000012910B5044609D002290BD003290CBFAB
:101630000649074906F0A2F9204610BD054906F003
:101640009DF9F9E7044906F099F9F5E778C4000037
:10165000B8C0000068C7000088C40000012910B5A8
:10166000044611D0022913D0032915D0042917D01C
:10167000052919D006291BD007290CBF0E490F498F
:1016800006F07CF9204610BD0D4906F077F9F9E720
:101690000C4906F073F9F5E70B4906F06FF9F1E72D
:1016A0000A4906F06BF9EDE7094906F067F9E9E741
:1016B000084906F063F9E5E730C40000B8C000004F
:1016C00018C400001CC4000020C4000024C4000092
:1016D00028C400002CC40000F0B50C4685B0354984
:1016E00016461F46054606F049F96CB3012C51D049
:1016F000022C45D0032C48D007D92F49284606F0A4
:101700001DFA042C20D0052C35D0062C4CD0072CEB
:1017100045D024F00404013C022C12D8330620D416
:101720002B21284606F018FAFAB206F07F01684627
:1017300006F07CF96946284606F0FCF9684606F092
:10174000DDF8284605B0F0BDFAB2F1B2684606F001
:101750006DF96946284606F0EDF9684606F0CEF8C0
:10176000D7E72D21284606F0F7F906F07F01C1F1F1
:101770008001FAB2DBE71149284606F0DFF9CDE730
:101780000F49284606F0DAF9C3E70E49284606F065
:10179000D5F9BEE70949284606F0D0F9B9E7094965
:1017A000284606F0CBF9B9E70549284606F0C6F900
:1017B000B4E700BFA4C300003CC4000034C4000070
:1017C00038C400007CC6000070B50C463A49164685
:1017D000054606F0D3F8D4B1012C3ED0022C32D00D
:1017E000032C3FD0042C33D0052C45D0062C3ED002
:1017F000072C18D08EB1012E49D0022E41D0032ED5
:1018000003D12E49284606F099F9284670BD2C4987
:10181000284606F093F9002EEDD12749284606F018
:101820008DF9284670BD2749284606F087F9A6B3EA
:10183000012E3CD0022E35D0032EE6D12249284677
:1018400006F07CF9E1E72149284606F077F9D1E76F
:101850001F49284606F072F9CCE71E49284606F0D3
:101860006DF9C7E71C49284606F068F9C2E71B492D
:10187000284606F063F9BDE71949284606F05EF9E7
:10188000B8E71849284606F059F9284670BD1649A8
:10189000284606F053F9284670BD1449284606F03C
:1018A0004DF9B2E71249284606F048F9ADE711496B
:1018B000284606F043F9A8E7B8C0000070C400004D
:1018C00040C400005CC400006CC4000048C40000B8
:1018D00050C4000044C400004CC4000058C40000C0
:1018E00054C4000078C40000FCC4000060C40000C0
:1018F00068C4000064C400002DE9F0430C4685B0C4
:10190000E0491646054606F039F847F67F639C42E3
:1019100000F0018147F6BF639C4200F0048147F666
:10192000FF639C4200F0048147F2BF639C4200F0D9
:10193000048147F63F639C4200F0048147F2FF6355
:101940009C4200F0048147F27F639C4200F00481D6
:1019500047F23F639C4200F004814FF609239C420A
:1019600000F0388146F6BF639C4200F0388146F6AD
:101970007F639C4200F0388146F23F62944200F05F
:1019800038814EF23F732340934200F037814FF687
:101990003F72224046F23F518A4200F0348146F2C3
:1019A0003F1293424FEAD42700F0328146F27F0281
:1019B000944200F0418146F2BF02944200F0D6808A
:1019C00046F23F72944200F03C8146F27F729442AC
:1019D00000F03C8146F2BF72944200F03C8146F236
:1019E000FF72944200F0428146F23F42934200F07F
:1019F000428146F23F32934200F0788117F01F088F
:101A0000C4F3022900F00D81B8F1010F00F07A81D2
:101A1000B8F1020F00F07B81B8F1030F00F07C8178
:101A200007F01C03042B00F07C81082B00F08B8155
:101A30000C2B00F0A080FA0640F11281B9F1000FE2
:101A400000F05B81B9F1010F00F08981B9F1020F5B
:101A500000F08081B9F1030F00F09581B9F1040F16
:101A600000F08C81B9F1050F00F08381B9F1060F08
:101A700000F07A81B9F1070F00F0678123074CBFAE
:101A800081498249684605F079FF6946284606F093
:101A900051F8684605F032FF0A22C8F38101684612
:101AA00005F0C4FF6946284606F044F8684605F08C
:101AB00025FF0A2207F00301684605F0B7FF6946D3
:101AC000284606F037F8684605F018FFC4F3811180
:101AD0006846FFF787FD6946284606F02BF86846FA
:101AE00005F00CFFC4F301116846FFF799FD694644
:101AF000284606F01FF8684605F000FF04F00701CD
:101B00006846FFF7ABFD6946284606F013F86846BD
:101B100005F0F4FE03E05E49284606F00FF828467B
:101B200005B0BDE8F0835B49284606F007F8F6E704
:101B30005949284606F002F8F1E75849284605F0C9
:101B4000FDFFECE75649284605F0F8FFE7E7554961
:101B5000284605F0F3FFE2E75349284605F0EEFF7B
:101B6000DDE75249284605F0E9FFD8E75049284605
:101B700005F0E4FFD3E7C4F3811249466846FFF756
:101B800023FE6946284605F0D5FF684605F0B6FEF7
:101B90000A2207F00301684605F048FF6946284617
:101BA00005F0C8FF684605F0A9FE3649284605F04D
:101BB000C5FFF2B204F03F01684605F037FF694601
:101BC000284605F0B7FF684605F098FE284605B0A0
:101BD000BDE8F0833749284605F0B0FF9FE7364956
:101BE000284605F0ABFF9AE73449284605F0A6FFE2
:101BF00095E73349284605F0A1FF90E7314928468B
:101C000005F09CFF8BE73049284605F097FF86E7F3
:101C10002E49284605F092FF07F0030168460A2284
:101C2000CBE72B49284605F089FF3346E2B2494607
:101C30006846FFF751FDC2E72649284605F07EFFBA
:101C40006DE72549284605F079FF68E723492846CE
:101C500005F074FF63E72249284605F06FFF5EE751
:101C60003F21284605F078FF2146D7E71D49284641
:101C700005F064FF53E71C49284605F05FFF07F0B5
:101C80000301CBE7A4C3000014C40000B8C00000E7
:101C900074C400007CC4000084C400008CC4000034
:101CA00098C40000A4C40000B0C40000BCC400007C
:101CB00008C50000C4C40000D0C40000D8C400009F
:101CC000E0C40000E8C40000F0C40000F8C4000054
:101CD00048C5000000C5000010C500001CC500007C
:101CE00028C5000034C5000040C50000284928462A
:101CF00005F024FF07F0030190E72649284605F088
:101D00001DFFBBE62449284605F018FF8DE723494F
:101D1000284605F013FF88E72149284605F00EFF05
:101D200083E72049284605F009FF07F003010A224E
:101D3000684605F07BFE6946284605F0FBFE6846CE
:101D400005F0DCFD71E71849ECE71849284605F075
:101D5000F5FE93E61649284605F0F0FE8EE6154995
:101D6000284605F0EBFE89E61349284605F0E6FE15
:101D700084E61249284605F0E1FE7FE61049284630
:101D800005F0DCFE7AE60F49284605F0D7FE75E639
:101D9000C0C5000054C50000D0C500004CC50000FF
:101DA000E8C5000050C50000DCC5000070C500009B
:101DB0005CC5000058C500006CC5000068C5000087
:101DC00064C5000060C50000F0B44FF63F740440E5
:101DD00046F23F52C10A944201F01F034FEA102518
:101DE0001AD04EF23F74044046F23F6294423AD019
:101DF00046F23F12944239D046F27F0290424CD0D4
:101E000046F2BF02904235D046F23F4294424FD054
:101E100046F23F32944259D0002214465BB96B021D
:101E200003F46063C0B211034FF40024204408445B
:101E30001844F0BC7047012B27D0022B30D0032B65
:101E40001BD001F01C06042E36D0082E6ED011F0E7
:101E500010074FD10C2E3DD0E4033B4604F58024FF
:101E600011033846E2E700220124D7E701F003021C
:101E70000224D3E700220424D0E76B0203F460635A
:101E8000C0B211034FF48414D0E76B0203F4606313
:101E9000C0B211034FF40824C8E700220324BDE7B1
:101EA0006B0203F46063C0B211034FF48014BDE70A
:101EB00001F003020524B1E70A036B0202F440516A
:101EC00003F46063C0B24FF44024AFE701F00302B3
:101ED0000624A3E705F00703072BC0F3811200F0E7
:101EE0003F002DD0DB03090303F5C01401F440517A
:101EF00053029BE700F00704ED034A0205F4603546
:101F000004F5A01102F4C0622944114400F0C00499
:101F10008200214402F0200240089B020A4400F0A3
:101F2000180003F440531044184482E70A036B027C
:101F300002F4405103F46063C0B24FF4482475E7E3
:101F4000530239464FF4E01470E700BFC0F38241FA
:101F5000012970B4C0F3C234C0F3023617D002298D
:101F6000C0F34222C0F3080531D0032916D004295A
:101F700033D0052938D006291ED007290BD100F00F
:101F80003F0000F5CE4303EB821070BC7047022C7B
:101F900040D0072C0BD1002070BC7047100200EB22
:101FA000C6202844621C00EB423070BC70471C4BBA
:101FB00053F8240070BC704700F03F0000F5C040AB
:101FC00000EB042404EBC62606EB8210DDE71202C8
:101FD00002EBC422501970BC7047A31C05EB022011
:101FE00000EBC32070BC704700F0070101F5004111
:101FF00001EB042404EB463600F4E073410006EBE9
:10200000C222134401F0300180080B4400F00800A4
:102010001844BAE7024B9A6802EBC620B5E700BF46
:102020002487FF1F70B584B00D46860C474968466B
:1020300005F0A4FC6846FFF7F1F9684605F05EFC80
:10204000EDB1012D06F0070409D0022D23D106F0D1
:102050000506012E38D0052C4BD004B070BD012CE4
:1020600049D0022C49D0032C39D0042C3FD0052C68
:102070003BD0062C37D0072CEFD1354900E035494D
:10208000684605F08FFC6846FFF7C8F9684605F01A
:1020900035FC04B070BD032D31D1A31E022B0FD827
:1020A0002D49684605F07EFC6846FFF7B7F968469B
:1020B00005F024FC062C14D0072CCED12749DFE7ED
:1020C000052CF7D12649DBE72649684605F06AFC6E
:1020D0006846FFF7A3F9684605F010FCBBE7224904
:1020E000CEE72249CCE72249CAE72249C8E722497C
:1020F000C6E72249C4E72249C2E72249C0E7042DC6
:102100000AD1052C17D0A31E022B01D81E49B7E710
:10211000052CA2DD1D49B3E7052D03D1052CF2D115
:102120001B49ADE7062D03D1052CECD11949A7E7D2
:10213000032D92DDE7E71849684605F033FC684651
:10214000FFF76CF9684605F0D9FBDCE7B8C0000082
:1021500038C6000074C5000080C60000E0C600005C
:10216000A0C600004CC60000D4C50000BCC60000DC
:1021700014C60000ECC50000E0C5000064C6000005
:102180009CC50000C8C500006CC700008CC70000DB
:1021900024C7000048C7000004C700002DE9F0472D
:1021A0006D4884B004F050FEFEF76CFDC0F30E07DE
:1021B000FEF768FD0446FEF74FFD00221146664813
:1021C00004F004FE04226549634805F07FFA00200C
:1021D000FEF77AFDFFF7B2F8032261495E4805F089
:1021E00075FA0120FEF770FDFFF7A8F803225D499C
:1021F000594805F06BFA0220FEF766FD8146FFF7AD
:102200009DF803225849544805F060FA0320FEF770
:102210005BFD8246FFF792F854494F48012205F0D2
:1022200055FA21044CBF524952494B48012205F04E
:102230004DFA3846FEF760FD0122804600214648EF
:1022400004F0C4FD3846FFF779F801220621424820
:1022500004F0BCFD082241466846FFF74DFB694685
:102260003D4805F047FA684605F048FB4FEAD82399
:1022700003F01F02012AC8F302255FFA88F411DD7A
:10228000032A09DC01266B1E062B15D8DFE803F0B4
:1022900059500C1459500C0003F01C03042BF1D0BE
:1022A000082B31D10026EEE718F0800F1CBF04F098
:1022B0007F04AAF1800A5444032D4FF001022B49F8
:1022C000254830DD05F002FA01222B492248164448
:1022D00005F0FCF92046FFF731F8AEB14FF00008E9
:1022E000032D17DD2046FEF707FD03040446F9D44D
:1022F00008F10108B045F3D102222049164805F043
:10230000E5F92046FFF71AF83846FEF7F5FC04B069
:10231000BDE8F0872046FEF7EFFC08F10108B04564
:102320000446DDD1E8E705F0D1F9002DD5D0D1E79D
:1023300018F0800F1CBF04F07F04A9F180094C4401
:10234000BAE718F0800F1DBF04F07F04A7F18003E7
:10235000E418E419B0E700BFA892FF1F9CC7000073
:10236000A4C70000A8C70000ACC70000A4C30000B9
:1023700078C40000B0C700003CC40000B4C700002F
:102380002DE9F04784B00546FEF77CFCC0F30E074C
:10239000FEF778FC0446FEF75FFC0020FEF794FC95
:1023A00080460120FEF790FC06460220FEF78CFCDA
:1023B00081460320FEF788FCEB07824638D4AA0743
:1023C00005D43846FEF798FC04B0BDE8F0873846DF
:1023D000FEF792FC394680466846FEF74DFF694697
:1023E000714805F087F9684605F088FA08224146E9
:1023F0006846FFF781FA69466B4805F07BF9684645
:1024000005F07CFA4FEAD82303F01F02012AC8F333
:1024100002255FFA88F45EDD032A55DC01266B1E77
:10242000062B62D8DFE803F0B5AC5961B5AC5900B2
:1024300004215E4807F02CFA41466846FEF71CFF6F
:102440006946594805F056F9684605F057FA0321E0
:10245000574807F01DFA31466846FEF70DFF6946FA
:10246000514805F047F9684605F048FA03215148FC
:1024700007F00EFA49466846FEF7FEFE69464A48EE
:1024800005F038F9684605F039FA03214A4807F0A3
:10249000FFF951466846FEF7EFFE6946424805F0EF
:1024A00029F9684605F02AFA0121444807F0F0F9B5
:1024B00020044FF001014CBF4148424807F0E8F9C1
:1024C000394805F03DF97AE703F01C03042BA5D049
:1024D000082B7FF476AF0026A1E718F0800F1CBF11
:1024E000AAF1800A04F07F045444032D4FF0010147
:1024F000324840DD07F0CCF9012133480E4407F0A3
:10250000C7F921466846FEF7B7FE6946264805F03A
:10251000F1F8684605F0F2F9002E3FF452AF4FF0A3
:102520000008032D1EDD2046FEF7E6FB03040446EB
:10253000F9D408F10108B045F3D10221234807F08E
:10254000A7F921466846FEF797FE6946164805F04A
:10255000D1F8684605F0D2F93846FEF7CDFB04B055
:10256000BDE8F0872046FEF7C7FB08F10108B0453B
:102570000446D6D1E1E707F08BF9002DCCD0C0E7B7
:1025800018F0800F1CBF04F07F04A9F180094C44AF
:10259000ABE718F0800F1DBF04F07F04A7F18003A4
:1025A000E418E419A1E700BF1888FF1F9CC70000CA
:1025B000A4C70000A8C70000ACC70000A4C3000067
:1025C00078C40000B0C700003CC40000B4C70000DD
:1025D000F8B50121142006F0C1F8012006F0D8F862
:1025E000122005F0F7FC00210746142006F0B6F88B
:1025F0000121152006F0B2F8012006F0C9F81220DA
:1026000005F0E8FC00210646152006F0A7F8012198
:10261000162006F0A3F8012006F0BAF8122005F003
:10262000D9FC00210546162006F098F80121172054
:1026300006F094F8012006F0ABF8122005F0CAFC71
:1026400000210446172006F089F8642F0DDC642E63
:1026500019DD642D4FF004000EDD642C4FF00300F3
:102660000DDD4FF400602044F8BD642EF1DC642DD4
:102670003E464FF00100F0DC642C3546F1DC2C4680
:1026800080022044F8BD642DE7DC642CE9DC0020E6
:10269000F8BD00BF70B50546FFF79AFF08B90020E6
:1026A00070BD04460A2006F073F8FFF791FF231A65
:1026B000002BB8BF5B42452B06463ADD0020231AAB
:1026C000002BB8BF5B42452BE9DC34441D4A1E4950
:1026D000204482FB0032C317D21A81FB0010C2F3E0
:1026E000090240F2EE218A42C3EB602015DC6FF450
:1026F000C8741319C62B22D96FF482710A448B2A2D
:1027000034BF032300235DB90028C8DD002BC6D0E9
:10271000013800EB4000184470BD0223002DF3D0B7
:102720000028BCDD002BBAD00138A0EB8000C01A15
:1027300070BD0A2006F02CF8FFF74AFFBFE701231F
:10274000E1E700BF56555555ABAAAA2A2DE9F0433B
:10275000044685B000283AD1012701220021BE4855
:1027600004F034FB2046FEF7E9FD0B22BB49BA48D2
:1027700004F0ACFF04F00F06FEF79AFA4FF40045A0
:10278000FEF7DCFD45FA06F0FEF770F907FA06F0F1
:10279000FEF7C8F904F007010A20FEF70BF9211132
:1027A0000B20FEF707F9FEF757FA25FA06F1091A8A
:1027B00018BF01210D2005F0D1FF0134642005F080
:1027C000E7FFB4F5803FC8D105B0BDE8F08301282C
:1027D00052D0022800F01381032800F0F280042870
:1027E00000F0D080052800F09980062800F079815B
:1027F000072800F055810828E6D1FEF7D9FB012211
:1028000000219548964DDFF87C8204F0DFFA954967
:102810009148FEF779F800262B88B342344602D857
:10282000E41A9C42FCD22046FEF766FA81464FF637
:10283000FF7005F05FF8014607462046FEF7BCFA38
:102840002046FEF759FA391A18BF01210D2005F06C
:1028500085FF013649462046FEF7AEFA4645DBD1F4
:10286000012200217C4804F0B1FA7F497A48FEF742
:102870004BF805B0BDE8F083FEF79AFB2246002135
:102880007548774D04F0A2FA78497348FEF73CF892
:1028900022460021704804F099FA2B886BB300247B
:1028A0006E4601E0914234D02046FEF725FA2146DB
:1028B00007463046FEF796FC31466D4804F01AFF95
:1028C000304605F01BF801216A4806F0E1FF394661
:1028D0003046FEF787FC3146654804F00BFF64483C
:1028E00004F02EFF304605F009F82B880134A3428E
:1028F000C4F3080140F2FF12D4DC01220021564843
:1029000004F064FA5C495448FDF7FEFF05B0BDE8E9
:10291000F0835A495048FDF7F7FFC5E7504D6E4622
:102920005749304605F02AF82B88B3F5005FC8BF39
:102930004FF400541BDD21462046FEF73DFA2B885C
:102940004034A342F7DCB3F5005F10DD4FF40054D0
:102950002046FEF7D1F984424FF05801304608BFB7
:102960002E2105F0F9F82B884034A342F0DC3146E3
:102970003F4804F0BFFE3E4804F0E2FE304604F05B
:10298000BDFFCDE7FEF714FB002133483D4C01228B
:1029900004F01CFA3C493048FDF7B6FF4FF6FF71D2
:1029A0000020FEF779F8013CF8D1214601222A489F
:1029B00004F00CFA35492848FDF7A6FF05B0BDE83C
:1029C000F083FEF7F5FA002123482E4C012204F093
:1029D000FDF92F492048FDF797FF00210846FEF733
:1029E0005BF8013CF9D1214601221B4804F0EEF9C5
:1029F00028491948FDF788FF05B0BDE8F083FEF7C8
:102A0000D7FA002114481F4C012204F0DFF92249B3
:102A10001148FDF779FF4FF6FF7004F06BFF014698
:102A200005460020FEF738F80020FEF765F9291A60
:102A300018BF01210D2005F091FE013CEBD121468C
:102A40000122054804F0C2F914490348FDF75CFF70
:102A500005B0BDE8F08300BFA892FF1FB8C7000013
:102A6000A492FF1F74C8000088C80000C4C70000FB
:102A70001888FF1FECC70000D8C7000014C400006E
:102A8000B8C00000E0FF1F0030C8000040C80000D0
:102A900010C8000020C80000F0C7000000C80000F7
:102AA000FEF786FA18490020FEF792F91749282008
:102AB000FEF78EF916494020FEF78AF91549602085
:102AC000FEF786F901220021134804F07FF913492B
:102AD0001148FDF719FFC82005F05AFE05B0BDE802
:102AE000F08346F26660FEF795FA012200210A485B
:102AF00004F06CF90A490848FDF706FFC82005F004
:102B000047FE05B0BDE8F0834487FF1FAC87FF1F79
:102B10006C87FF1F7C87FF1FA892FF1F64C80000FF
:102B200050C800002DE9F041624D634B2A6883FBD9
:102B30000214D117C1EBA41404EB8404A2EB4414D7
:102B40000C282C6000F0AC800D28074600F0938024
:102B50000A2800F09E8083FB0423E617C6EB2316A9
:102B60004F2C304646DC07F0A9FC07F0CDFA07F001
:102B700093FD06EB8603A4EBC301504EC2B2C9B26B
:102B80004F4804F023F93378FBB1282420214C4826
:102B900004F0A0F9013CF9D1D5F80080464C4FEA89
:102BA000E87384FB0824C3EB2414204607F086FC5A
:102BB00007F0AAFA07F070FD04EB8404A8EBC40147
:102BC000C2B2C9B23E4804F001F939463C4804F0AB
:102BD00081F92B68384A013382FB0321DA17C2EBF3
:102BE000A11202EB8202A3EB421300222B6032708F
:102BF000BDE8F08107F062FC07F086FA00224FF092
:102C0000804307F00DFB07F047FD06EB8603A4EBBE
:102C1000C3012A4EC2B2C9B22A4804F0D7F83378A9
:102C200023B328242021274804F054F9013CF9D18A
:102C3000D5F80080204C4FEAE87384FB0824C3EBEE
:102C40002414204607F03AFC07F05EFA00224FF009
:102C5000804307F0E5FA07F01FFD04EB8404A8EBBE
:102C6000C401C2B2C9B2174804F0B0F839461548D9
:102C700004F030F9ADE783FB0423E417C4EB23131E
:102C800003EB83030D4ADB0001212B601170BDE8CB
:102C9000F0810A4B283401222C601A70BDE8F081C3
:102CA000074804F0D1F8074804F0CEF800232B6061
:102CB000BDE8F081F493FF1F67666666AE93FF1F61
:102CC000A892FF1F8893FF1FFDF7DEBBF8B50746EC
:102CD0000E461D461446FDF751FEF9B2114804F0A8
:102CE00087FCC6F307210F4804F056FAF1B20D48ED
:102CF00004F052FA55B1013D54FA85F5013C14F83F
:102D0000011F084804F048FAAC42F8D101210548F7
:102D100004F09CFC052005F03BFDBDE8F840FDF704
:102D20001DBE00BF2C93FF1F2DE9F043032889B07F
:102D300018DCC4010D4604F180072846FDF7DCFFCE
:102D4000C0F307210646204605F042FA601CF1B2A6
:102D5000023405F03DFAA74205F10105EDD109B0B5
:102D6000BDE8F083071FB0F5017F4FEAC71701F1F7
:102D7000080607F18008ACBF4FF057094FF0530920
:102D80000DF10505A6F108042046FDF7B5FF013455
:102D90000312B44205F8013C05F8020BF4D11023EC
:102DA000394601AA48461F44FFF790FF052005F069
:102DB000EFFCB84506F10806E2D109B0BDE8F083A2
:102DC00038B5C4B20D46FDF7D9FD2146134804F0CD
:102DD0000FFCC5F30721114804F0DEF9E9B20F48F2
:102DE00004F0DAF901210D4804F030FC01232146FA
:102DF0001A460A4804F036FC084804F0C9F920B91C
:102E0000FF24FDF7ABFD204638BD044804F0ECF983
:102E1000C4B2FDF7A3FD204638BD00BF2C93FF1FB1
:102E200003282DE9F04116DCC5010C4605F18007A9
:102E3000284605F0B3F90646681C05F0AFF90235DF
:102E400040EA06212046FDF7B7FFAF4204F1010436
:102E5000EED1BDE8F081051FB0F5017F4FEAC51541
:102E60000C4605F18008B4BF532657262946304644
:102E7000FFF7A6FF691C07463046FFF7A1FF0235A2
:102E800040EA07212046FDF797FF454504F101047C
:102E9000ECD1BDE8F08100BF2DE9F04783B25A1EA6
:102EA000062A84B0044664D90B2862D0C94E35681E
:102EB000012D00F00C82082801F0DA80092C00F0C6
:102EC00090800A2C40F03E81032D40F20782052DB0
:102ED00000F09480DFF800A3DAF80030BE4F022B38
:102EE00000F3CE81092C00F0EB86042D00F0AC82BB
:102EF000062D00F0AD82072D00F0B482082D40F0C1
:102F00009B83002C40F362810B2C00F0FF87052C83
:102F100018DCB24F4FF000083B4607EB840153F832
:102F2000042B8B429044FAD157F8243053B100253A
:102F3000A90105EB0800FFF773FF57F824300135AE
:102F4000AB42F5D8A64803F07FFF0023A549CAF895
:102F500000306846336004F011FD6846FEF75EFA03
:102F6000684604F0CBFC9E4803F01AFF04B0BDE8AD
:102F7000F087984E3568012D00F0DC80DFF858A20C
:102F8000DAF80030012B40F3F280082C5CD1DAF83B
:102F90000030012B00F05B81022B59D0082C8DD121
:102FA000DAF80030022B01F06D80012B00F0DA839B
:102FB000032D8CD18C4B1B68002B40F0C387DAF8B3
:102FC0000030022B02DD032B00F063818749884A21
:102FD000834800230B60CAF80030136003F0E0FE62
:102FE000F4E0DFF8F4A1DAF80030022B00F00E81F3
:102FF000032D3FF471AF052D7FF46CAF002C7FF7EC
:1030000069AF0A2C00F00C830B2C00F0AE860C2C60
:1030100000F0AB803034FDF74BFE10F0010540F0BE
:103020003E8621462020FDF737FD724B1A8847F671
:103030007F639A4200F06A866F4B1888FDF75CFE4A
:103040002046FDF7E7FFC1E0DAF80030022BA5D1FA
:10305000002D40F0ED81654FDFF894913968D9F883
:103060000020DFF8A081C1F105030B2C03EB430323
:103070004FF0070008BF0024984022EA000204FA3B
:1030800003F3481C13449BB22A462946386054482F
:10309000C9F8003003F09AFEB8F80000FEF74EF9C8
:1030A000012256494E4804F011FBD9F80000FEF702
:1030B00045F9294601224A4803F088FE2946684618
:1030C00004F05CFC6C4628254D49204604F036FD92
:1030D000013DF9D1214642484A4E04F00BFB2046FF
:1030E00004F00CFC012229463D4803F06FFEB8F8BD
:1030F00000204FF6FB739A4240F27F8242493848E3
:10310000022204F0E3FA31883548A1F57F41FC3909
:1031100004F066FB3B68354A052B40F3F38500233A
:103120001360072100222E4803F050FE2C4803F0C4
:1031300041FE4BE0DFF8A0A0DAF80030012B19DDEA
:10314000012522E70C2C40F0CF87DFF88CA0DAF8BD
:103150000030012B40F3AE83022B00F03183032DAE
:1031600000F0E885052D7FF4B7AE232453E7032D47
:103170003FF60BAFDFF878901C4F002B00F0608219
:103180000B2C3D6808BF4FF00008A24614BFA046B4
:10319000C246002D00F0658200221148E9B203F01A
:1031A00015FE51460E4804F01BFB3268D9F800109A
:1031B0003B680B48012A14BF08220A2201FB028245
:1031C0000133C9F800203B6003F0EAFD04B0BDE81C
:1031D000F08700BF7C96FF1F6C93FF1FF487FF1FD3
:1031E000A892FF1FB8C000007493FF1F7093FF1FC9
:1031F0001C93FF1FF093FF1F6893FF1FECC7000095
:10320000A4C30000A692FF1FC8C80000022D3FF60D
:10321000EFAEA74F3B68002D03F101020CBF052163
:1032200006219142C0F23F860833D9B23A600022AB
:10323000A04803F0CBFD9F4803F0BCFD3368022B90
:10324000C4D19D4B39681868FEF7ECFEBEE7984F75
:103250003B68002B7FF7A4AE022D3FF6A1AE964D42
:1032600094482A68013BD9B2D40800223B602C6004
:1032700003F0ACFD012291498E4804F027FAA5E73E
:10328000032B7FF432AE002C40F315850B2C00F09D
:1032900015820023082CCAF8003040F31282092C52
:1032A00040F01082FDF704FD10F0010F684640F079
:1032B0001186834904F076FB6846FEF7AFF868464E
:1032C00004F01CFB7F4B1888FDF7D0FE7EE7083B1F
:1032D000012B7FF62FAF0A2C40F00481DFF800A20B
:1032E000DAF80030022B00F0DF82714F3B68002BD0
:1032F00000F09881DFF8C091DFF8C881012BD9F880
:10330000003000F00E86A8F800300022694811460F
:1033100003F05CFD3368B8F80000012B00F0B584C1
:10332000FEF70CF8FDF744FE01226749614804F0FE
:10333000CDF93368B8F80000012B00F0AA84FDF73E
:10334000DBFCFDF7FBFF6846002104F017FB6C4631
:1033500028255A49204604F0F1FB013DF9D12146C8
:10336000544804F0C7F9204604F0C8FA012329465E
:103370001A4650483D60C9F80050CAF8003003F0C2
:1033800025FD2946204604F0F9FA28254B49204618
:1033900004F0D4FB013DF9D121464648494F04F0E1
:1033A000A9F9204604F0AAFA01222946414803F06F
:1033B0000DFDB8F800204FF6FB739A4200F2C5816C
:1033C000072242493B4804F081F93888FDF794FC14
:1033D000082201462046FEF78FFA2146354804F0C0
:1033E00089F9204604F08AFA3248394D03F0D8FCB6
:1033F000336833F002020AD13649204604F0BEFA9F
:103400002046FEF70BF8204604F078FA2B68012BD3
:1034100000F03C85032B7FF4D9AE2F49204604F001
:10342000ADFA2046FDF7FAFF204604F067FACDE634
:10343000012D00F06983022D00F0B983082C7FF480
:103440003DADDAF80030B0E5002C7FF7BFAE79E58E
:10345000002C7FF7BBAE0B2C14BF20460020FFF7DB
:1034600075F96FE5002C7FF7B1AE0B2C00F02085CD
:10347000052C3FF767AD194F4FF000083B4607EBAF
:10348000840153F8042B99429044FAD157F8243020
:10349000002B3FF457AD0025A90105EB0800FFF70D
:1034A00043FC57F824300135AB42F5D84AE500BF5C
:1034B0007093FF1FA892FF1F1C93FF1FA4C300005F
:1034C000B8C90000A692FF1FECC70000C0C80000EA
:1034D0007C96FF1FCCC800000CC90000F487FF1FBA
:1034E0006C93FF1F0C2C7FF4F5ACDFF8CCA2DAF85C
:1034F0000030012B3FF730AE0025A34CDFF8BC9223
:10350000A24825602A4629460223C9F80050CAF875
:10351000003003F05BFC2946684604F02FFA6C4645
:1035200028259B49204604F009FB013DF9D121469D
:103530009648DFF8648204F0DDF8204604F0DEF9F6
:103540002A462946914803F041FCB8F80000FDF7EF
:1035500007FF01228F498D4804F0B8F82B46D9F8AF
:1035600000108A480A2204F0FBF829460122874805
:1035700003F02CFC2946204604F000FA2825844953
:10358000204604F0DBFA013DF9D121467F48824E06
:1035900004F0B0F8204604F0B1F9012229467B4836
:1035A00003F014FCFDF704FDB8F800204FF6FB73A0
:1035B0009A4200F27D8507227849744804F086F823
:1035C0003088FDF799FB082201462046FEF794F962
:1035D00021466E4804F08EF8204604F08FF97049B9
:1035E000204604F0CBF92046FDF718FF204604F0F2
:1035F00085F9664803F0D4FBE8E50722674963488C
:1036000004F064F8D9F8001008222046FEF774F997
:1036100021465E4804F06EF8204604F06FF979E523
:103620002A24F8E4DFF87081DFF89091B8F80030D0
:103630000133A8F8003068E6002C3FF7C7ACC5E5B9
:1036400001225849C9F8003068463B60CAF800209A
:1036500004F094F96846FDF7E1FE684604F04EF97F
:103660008EE52A4629464948C9F8005003F0AEFBCA
:103670002946684604F082F96C46282544492046CC
:1036800004F05CFA013DF9D12146404804F032F8DB
:10369000204604F033F93D4803F082FB3368012BE8
:1036A0000CBF41493F49204604F068F92046FDF728
:1036B000B5FE204604F022F93D686DE50024CAF805
:1036C0000040346001220021304803F07FFB68464F
:1036D000002104F053F96C4628252D49204604F0BA
:1036E0002DFA013DF9D121462848304D04F002F869
:1036F000204604F003F93368002B00F09F83012B70
:1037000000F04284022B00F05984032B00F049841E
:10371000042B00F09084052B00F07D84062B00F034
:103720006A84072B00F05784082B7FF41CAC2049D7
:10373000204604F037F92046FDF770FE204604F0DD
:10374000DDF8124803F080FB0DE4022219490F480E
:1037500003F0BCFF39880D48A1F57F41FC3904F026
:103760003FF841E6084F3B68002B7FF421AC022D67
:103770003FF61EACDFF82080DFF84090B8F800304C
:10378000013BA8F80030C0E57093FF1FA892FF1F0F
:10379000A4C30000ECC70000A692FF1FC0C8000031
:1037A00048C900009CC80000B4C800007C96FF1FF8
:1037B000CCCA0000C8C800006C93FF1F1C93FF1FF9
:1037C000002D40F0AF82DFF83C93DFF82083FDF757
:1037D000EFFBD9F80010B8F80000FDF7EDFA002271
:1037E0001146BE4803F0F2FAB8F80000FDF7A6FD56
:1037F0000122BB49B94803F069FFB8F80000FDF7A2
:103800007BFAFDF79BFD6846002104F0B7F86C4693
:103810002825B449204604F091F9013DF9D121460B
:10382000AE4803F067FF204604F068F8AE4BAB48A3
:103830001D6001222946CAF8002003F0C7FA294674
:10384000204604F09BF82825A649204604F076F986
:10385000013DF9D12146A148A44E03F04BFF20467B
:1038600004F04CF8012229469C4803F0AFFAB8F85E
:1038700000204FF6FB739A4200F2D38207229C4944
:10388000964803F023FF3088FDF736FA08220146F8
:103890002046FEF731F82146904803F02BFF2046E2
:1038A00004F02CF893499BE6DFF858928E4FDFF82E
:1038B0003C822AE5002D40F08B80012B8A4F00F0DE
:1038C000C783DFF82882DFF83C92B8F800000025B3
:1038D0000223CAF800303D60FDF70EFA2A46294659
:1038E000C9F800007D4803F071FA2946684604F0E3
:1038F00045F86C4628257B49204604F01FF9013D18
:10390000F9D12146754803F0F5FE204603F0F6FF95
:103910002A462946714803F059FAB8F80000FDF725
:103920000DFD012274496D4803F0D0FED9F8000066
:10393000FDF704FD29460122684803F047FA2946AD
:10394000204604F01BF828256649204604F0F6F8C6
:10395000013DF9D121466148644E03F0CBFE20467B
:1039600003F0CCFF012229465C4803F02FFAB8F897
:1039700000204FF6FB739A4200F29F8207225F49B4
:10398000564803F0A3FE3088FDF7B6F90822014639
:103990002046FDF7B1FF2146504803F0ABFE20461C
:1039A00003F0ACFF5649204603F0E8FF2046FDF740
:1039B00035FD204603F0A2FF396848480731C9B2F7
:1039C000002203F003FA454803F0F4F9FFF7FEBBC9
:1039D000012D3FF491AD022D7FF4C1ABDFF80C81D6
:1039E000414FDFF82091FDF7E3FA0026B8F8000018
:1039F000CAF800503E60FDF77FF9FEF7E5F9324660
:103A0000C9F800003146354803F0E0F93146684610
:103A100003F0B4FF6C4628253249204604F08EF8A6
:103A2000013DF9D121462D4803F064FE204603F004
:103A300065FF2A462946294803F0C8F9B8F800006E
:103A4000FDF77CFC01222C49244803F03FFED9F805
:103A50000000FDF7ADFC29460122204803F0B6F92D
:103A60002946204603F08AFF28251E49204604F0F7
:103A700065F8013DF9D12146184803F03BFE204688
:103A800003F03CFF29460122144803F09FF9072266
:103A90001A49124803F01AFED9F80000FEF756FA48
:103AA000082201462046FDF727FF21460B4803F078
:103AB00021FE204603F022FFD9F800003968FEF706
:103AC000B1FA396805480731C9B22A4603F07EF9D0
:103AD000024803F06FF9FFF779BB00BFA892FF1F00
:103AE0006CC90000A4C300007093FF1FA692FF1FC3
:103AF00070C90000B8C00000ECC70000C0C80000DA
:103B000020C900001C93FF1FD24ED34F3368396881
:103B1000DFF85483D1480B2C08BF002403EB830348
:103B2000002204EB43039BB24C1C114633603C6003
:103B300003F04CF9B8F80000FDF712FC2A46C8491A
:103B4000C64803F0C3FD00233168C4480A2203F0CD
:103B500007FE2A460021C14803F038F968460021D3
:103B600003F00CFF6C462825BE49204603F0E6FF13
:103B7000013DF9D12146B948BB4E03F0BBFD2046BB
:103B800003F0BCFE01222946B44803F01FF9B8F83F
:103B900000204FF6FB739A4200F2AB813B68AE4ABD
:103BA000062B7FF7E0A900231360FFF7DCB9AA4FCB
:103BB000DFF8A0923968D9F80020DFF8AC82A74876
:103BC000C1F106030B2C03EB43034FF0070508BFBD
:103BD00000249D4022EA050204FA03F31344002264
:103BE00023F07F434C1C1146C9F800303C6003F0C1
:103BF000EDF8B8F80000FDF7A1FB012298499748BD
:103C000003F064FDD9F80000FDF7D2FB012200218A
:103C1000924803F0DBF86846002103F0AFFE6C46E3
:103C200028259049204603F089FF013DF9D121461E
:103C30008A4803F05FFD204603F060FE012229461A
:103C4000864803F0C3F8B8F800204FF6FB739A4299
:103C500040F26181D9F80000FEF778F908220146A8
:103C60002046FDF749FE21467C4803F043FD2046EF
:103C700003F044FE3968784BD9F800000629C4BF28
:103C800000211960FEF7CEF996E6FDF769FBFFF714
:103C900049BBFDF731F8FDF763FBFFF754BBFDF7B8
:103CA00087F9214605462020FCF7F6FE2846FDF759
:103CB000DDF9FFF78BBA042D7FF41AA9FFF786BA56
:103CC00003230122002165483B6003F07FF828228E
:103CD0006649624803F0FAFC6549684603F04EFE07
:103CE0006846FDF79BFB684603F008FEFEF770FC94
:103CF0000028FBD1322004F04BFD584803F050F867
:103D0000FFF764BA0733D9B2FFF70CBA2146284649
:103D1000FDF72AF8574B1888FCF7EEFFFDF760F91E
:103D2000FFF754BA022D00F00481012D20D0032D9D
:103D30007FF4CDA8FDF73CF9FCF7A4FF4E4C454AB3
:103D400045490023C0F30E05444813600B60CAF8D0
:103D50000030256003F024F8FDF7AEF9FEF71EFAF7
:103D6000464B01221A60FFF731BA3024FFF753B9EE
:103D7000FDF71EF9DFF8F080364BB8F8000019683F
:103D8000FDF71AF800221146344803F01FF8B8F87E
:103D90000000FDF7E5FA2A463949304803F096FC61
:103DA000B8F80000FCF7A8FFFDF7DAFA6846002132
:103DB00003F0E4FD6C4628252A49204603F0BEFEA8
:103DC000013DF9D12146254803F094FC204603F03B
:103DD00095FD214B21481D6001222946CAF800208B
:103DE00002F0F4FF2946204603F0C8FD28251D49AE
:103DF000204603F0A3FE013DF9D1214617481A4E93
:103E000003F078FC204603F079FD0122294613488F
:103E100002F0DCFFB8F800204FF6FB739A427FF601
:103E200041AD032217490D4803F050FC31880B487F
:103E3000A1F57F41FC3903F0D3FC33E5124920465C
:103E400003F0B0FD2046FDF7E9FA204603F056FDE9
:103E50002B6854E41C93FF1F7093FF1FA892FF1F51
:103E6000ECC70000A4C30000A692FF1F7CC900009D
:103E7000A8C900006893FF1FA893FF1F7493FF1F3A
:103E80006CC9000078C90000C4C900009B492046E5
:103E900003F074FD2046FDF7C1FA204603F02EFD25
:103EA0003368FFF7B7BA00233B600721FFF7BFB9BC
:103EB0000024934FA046FFF7E9BA022291499248A5
:103EC00003F004FC31889048A1F57F41FC3903F0F0
:103ED00087FC67E58D4903F065FD6846FDF79EFAAE
:103EE000684603F00BFDFDF763F8894B1880FFF778
:103EF0006DB902228349844803F0E8FB3188824887
:103F0000A1F57F41FC3903F06BFC47E600247C4FB0
:103F1000A046FFF709B807227E497B4803F0D6FB8D
:103F200098E6032B3FF6EFA9043BA8F80030FFF713
:103F3000ECB9DFF8EC91D9F80000FEF707F8C9F802
:103F4000000042E4FDF734F8734B714A18681080A2
:103F500080B2421E1A60FCF7CFFE012200216A489F
:103F60006E4C02F033FFFEF719F9674802F018FFB4
:103F70006B4965480023012223600B60CAF80020CA
:103F800002F00EFFFFF722B96649204603F00AFD52
:103F90002046FDF743FA204603F0B0FC3368FFF7F4
:103FA000B1BB6149204603F0FDFC2046FDF736FA1F
:103FB000204603F0A3FC3368FFF7AABB5B49204609
:103FC00003F0F0FC2046FDF729FA204603F096FCAA
:103FD0003368FFF79ABB5649204603F0E3FC2046BE
:103FE000FDF71CFA204603F089FC474802F02CFF3D
:103FF0003368FFF799BB4F49204603F0D3FC2046B6
:10400000FDF70CFA204603F079FC3F4802F01CFF54
:104010003368FFF786BB4849204603F0C3FC2046BF
:10402000FDF7FCF9204603F069FC374802F00CFF6D
:104030003368FFF773BB4149204603F0B3FC2046C9
:10404000FDF7ECF9204603F059FC3368FFF763BB3A
:104050003B68012B3AD0002B7FF733ACDFF8C090E0
:10406000D9F80000DFF8A88080B2A8F800002EE49C
:10407000DFF8CCA0DAF80030012B3FF4E8A8022BDF
:104080007EF496AF022D3FF6DCA9244F3B684BB976
:10409000002D0CBF052306233B600CBF0C210D2116
:1040A000FFF7C5B85A1E06333A60D9B2FFF7BFB85A
:1040B00002221449144803F009FB31881248A1F583
:1040C0007F41FC3903F08CFBFFF789BADFF8509091
:1040D000D9F800000328C5D80438DFF8348080B24E
:1040E000A8F80000FFF7F3BB032D7EF4F0AE082C18
:1040F000DFF84CA07EF4F0AEFEF75CBFF0C8000025
:10410000F487FF1FC8C80000A892FF1FBCC90000A9
:10411000A692FF1FC0C80000A893FF1F7093FF1F47
:104120001C93FF1FE8C9000038CA000010CA000035
:10413000B0CA000084CA00006CCA00005CCA00005B
:104140006C93FF1F38B50546FCF718FC012004F0FE
:104150001FFB2021274803F04BFAC5F30724002159
:10416000244803F019F82146224803F015F80121EC
:10417000204803F06BFA20211E4803F039FA092188
:104180001C4803F009F8E9B21A4803F005F80121C8
:10419000184803F05BFA44B32021164803F028FACC
:1041A0000621144802F0F8FF2146124802F0F4FFFD
:1041B0000121104803F04AFA20210E4803F018FAB2
:1041C00009210C4802F0E8FF01210A4803F03EFAF9
:1041D000012320211A46074803F044FA054803F05A
:1041E00003F801460020FCF7BFFDBDE83840FCF7AE
:1041F000B5BB00BF2C93FF1F2DE9F04FDA4DB3B0D4
:1042000005F090FA2B78C4B2DBB9D84E3368052B91
:1042100017D0032C32D0D64F3B78002B42D01B2C2A
:1042200000F096817F2C00F01781082C00F014819B
:104230000D2C00F095810A2C40F0068133B0BDE8CA
:10424000F08F402C00F0F080FCF732FD10F00106FA
:1042500040F0688121462020FCF71EFCC54B1A88DF
:1042600047F67F639A4200F06881C34B1888FCF7D9
:1042700043FD2046FCF7CEFE032CCCD1BB4A0023E5
:1042800013602B70FCF794FE0621BC4805F000FB80
:10429000BB4803F055FA0121BA4805F0F9FA33B0EA
:1042A000BDE8F08F213C5D2CC8D801A353F824F061
:1042B000834B00003D4200003D4200003D420000B3
:1042C0003D4200003D4200003D4200003D420000F2
:1042D0003D4200003D4200003D4200003D420000E2
:1042E0003D4200002D4600003D4600003D420000DA
:1042F0003D4200003D4200003D4200003D420000C2
:104300003D4200003D4200003D4200003D420000B1
:104310003D420000B94600003D4200003D42000021
:104320003D4200003D420000C94700003D42000000
:104330003D4200003D4200003D420000B548000003
:1043400079490000934A00002F4A00003D420000D6
:10435000FB4500003D4200003D420000FD4A0000D8
:10436000CD4900003D420000A94B00003D42000045
:104370003D4200003D4200000546000001460000AD
:104380003D420000974B00003D420000394F0000C5
:10439000814F00003D4200003D4200003D420000D0
:1043A0003D4200003D4200003D4200003D42000011
:1043B0003D4200003D4200003D4200003D42000001
:1043C000B14B00003D4200003D4200003D42000074
:1043D000EF4500003D4200003D4200009D4C0000C2
:1043E0003D4200003D4200009F4D00003D42000064
:1043F0003D420000034E0000E94500003D42000040
:104400003D4200003D4200000D4E00003D420000D4
:104410003D4200003D4200003D4200003D420000A0
:104420003D4200001B4F0000504E5748504F0023A4
:10443000102133602B7005F02BFA514803F080F9FE
:104440003B78002B3FF42EAF2146504803F084FB0D
:10445000204605F0A1FAF1E6DFF83081D8F808101F
:1044600000293FF4EBAE0139404603F089FC0820F7
:1044700005F092FA202005F08FFA082005F08CFA5A
:104480000D2C7FF4DBAE4249404803F0C9FB002805
:1044900040F0A3853A48DFF808A13E4C03F050F9FC
:1044A0004FF0FF33CAF80030A146002605E0013680
:1044B000282E09F1100900F054863549484603F0CA
:1044C000AFFB0028F3D048463049013603F0E0FA4C
:1044D000CAF80060FCF7ECFBC20700F15886FCF755
:1044E000D1FB25AC2C498146204603F047FA2146F2
:1044F000264803F0C5FB0646204603F0FFF9002ED0
:1045000000F0888525491E4803F0F4F81C4803F0A4
:1045100017F901211B4805F0BBF91D491B4803F0A1
:10452000C7FA8BE6FCF744FD214606462020FCF73F
:10453000B3FA3046FCF79AFD6BE630462146FCF7AD
:1045400013FC0D4B1888FCF7D7FBFCF749FD60E620
:1045500005F0E8F85B2825D0C0B205F01DFA6DE63D
:10456000DFF828808FE700BF6A93FF1F7C96FF1F4C
:10457000F087FF1FF093FF1F6893FF1F00CB000021
:104580001888FF1F08CB0000ECCA0000CC92FF1F68
:10459000B8C00000FC93FF1F64CB00009492FF1F83
:1045A0002893FF1F05F0BEF8412800F04E874228EF
:1045B0007FF444AEC44A13680133272BC8BF2723B6
:1045C000C249C348136001EB031103F061FA0521EE
:1045D000C04805F05DF90121BF4805F059F9BC4913
:1045E000BE4803F087F829E60120FDF7C9FE022046
:1045F000FDF7C6FEB94803F0A3F8FCF75DFD1DE624
:10460000FCF7A0FDFCF7D4FC2B78B54E1BB9336842
:10461000052B7FF413AE1021B24805F039F9AF48ED
:1046200003F08EF800232B70336007E60121AE48BB
:1046300005F02EF9A94803F083F8FFE501230F21C7
:10464000AA482B7005F024F9A44803F079F8002259
:104650001146A74825AC02F0B9FB2046002103F023
:104660008DF92825A349204603F068FA013DF9D1C8
:1046700021469F4803F03EF8204603F03FF92946C3
:1046800001229B4802F0A2FB2946204603F076F95E
:1046900028259849204603F051FA013DF9D12146D9
:1046A000934803F027F8204603F028F92A462946C4
:1046B0008F4802F08BFBC1E58F4FDFF820823B680B
:1046C0000F930F9E002525AC08E03B680E930E9BD0
:1046D000D8F808209B1B934280F00E86C5F1060196
:1046E000601905F069F80544052D7C49EDD99DF860
:1046F0009430602B00F2C985402B94BF303B373B90
:104700009DF89520602A4FEA031640F2B785573A84
:104710001644B6B20DF195020DF19900002512F87C
:10472000013F2D01602BA5F1570100F24B84402B76
:10473000A5F1370100F24684303D1D448242EED19E
:104740003B681193DDF844A0DFF890B1ADB24FEAB9
:1047500086094FF0000809E03B681093109BDBF8D6
:104760000820CAEB0303934280F0BF85C8EB090120
:1047700004EB080005F020F88044C1455749EBD808
:10478000002E3FF45BAD4FF0000805EB080080B24F
:10479000271D002114F8013B0901602BA1F15702EC
:1047A00000F2F283402BA1F1370200F2ED833039A1
:1047B0001944BC42EED108F10108FCF7FDFA1FFADA
:1047C00088F39E42E1D839E54B4FDFF810813B6812
:1047D0001393139E002525AC08E03B681293129BAF
:1047E000D8F808209B1B934280F07385C5F1060121
:1047F000601904F0E1FF0544052D3849EDD99DF815
:104800009430602B00F23785402B94BF303B373B10
:104810009DF89520602A4FEA031640F22585573A05
:104820001644B6B20DF195020DF19900002412F86C
:10483000013F2401602BA4F1570100F2CC83402BEF
:10484000A4F1370100F2C783303C1C449042EED102
:10485000A4B2002E3FF4F2AC00273B4621AD11E09C
:10486000FCF74AFA01462846FCF7BCFC29461B48DF
:1048700002F040FF284603F041F80137BBB29E42E8
:104880007FF6DCACE21803F0070392B2072B104668
:10489000E6D1FCF731FA01462846FCF7A3FC29468D
:1048A0000E4802F027FF0D4802F04AFF284603F0A9
:1048B00025F8E2E7104FDFF824803B680793079E56
:1048C000002525AC23E000BF2893FF1FFC93FF1FAA
:1048D000CC92FF1F5CCB000008CB00001888FF1FA4
:1048E0007C96FF1FECCA0000B0C700000CCB000094
:1048F000A892FF1FA4C300008C96FF1F3B6806937D
:10490000069BD8F808209B1B934280F0CE84C5F10B
:104910000801601904F050FF0544072DC549EDD981
:1049200026A9002014F8013B0001602BA0F15702DA
:1049300000F23483402BA0F1370200F22F8330388D
:1049400018448C42EED10DF197020DF19B05002128
:1049500012F8013F0901602BA1F1570400F23783DF
:10496000402BA1F1370400F23283303919449542CB
:10497000EED1FCF721FA61E4AF4FAE4E3B680993EC
:10498000099D25AC07E03B680893089BB2685B1B58
:10499000934280F0B5840121204604F00DFFA54923
:1049A0000028F0D09DF894003038FCF78DF90146CE
:1049B00021A8FCF717FC21A99E4802F09BFE9D4808
:1049C00002F0BEFE21A802F099FF37E49A4FDFF80B
:1049D00064823B680593059E002525AC08E03B6892
:1049E0000493049BD8F808209B1B934280F07984A1
:1049F000C5F10401601904F0DFFE0544032D8D4963
:104A0000EDD926A9002014F8013B0001602BA0F18C
:104A1000570200F2DA82402BA0F1370200F2D58271
:104A200030381844A142EED1FCF766F9BFE7824F57
:104A3000DFF800823B680393039E002525AC08E065
:104A40003B680293029BD8F808209B1B934280F09E
:104A50003C84C5F10401601904F0AEFE0544032D49
:104A60007449EDD926A9002014F8013B0001602B00
:104A7000A0F1570200F2AD82402BA0F1370200F204
:104A8000A882303818448C42EED1FCF7EFFAFFF7D9
:104A9000D5BB694FDFF89C813B680B930B9E0025CB
:104AA00025AC08E03B680A930A9BD8F808209B1BBA
:104AB000934280F01284C5F10501601904F07CFE78
:104AC0000544042D5B49EDD99DF8940026AD30389E
:104AD000002114F8013F0901602BA1F1570200F2F7
:104AE0006F82402BA1F1370200F26A8230391944FB
:104AF000A542EED1FCF738F9FFF7A0BB25AC2A237D
:104B000022460D214B4802F095FE9DF89430302B43
:104B1000074600F02985312B7FF490AB9DF8952056
:104B20004648303AD2B2002121AD02F04FF9284672
:104B3000002102F023FF28264149284602F0FEFF0B
:104B4000013EF9D129463D4802F0D4FD284602F045
:104B5000D5FE9DF895203948303A3146D2B202F060
:104B600035F9022F7FF76AAB013F3C440DF1950503
:104B700015F8011F314802F0ADF9AC42F8D1FFF74A
:104B80005DBB642003F004FEFCF772FC642003F0BC
:104B9000FFFDFFF753BB28212A4804F079FE254882
:104BA00002F0CEFDFFF74ABBFCF71AFAFFF746BB4F
:104BB000214FDFF880803B681793179E002525ACB6
:104BC00008E03B681693169BD8F808209B1B93427D
:104BD00080F07883C5F10401601904F0EDFD05440F
:104BE000032D1449EDD926A9002714F8013B3F01F4
:104BF000602BA7F1570200F2CF81402BA7F13702BB
:104C000000F2CA81303F1F448C42EED1BFB2B7F5EB
:104C1000017F4FEAC714A7F104082CBF4FF0570AD1
:104C20004FF0530A04F18009C4EBC81821AD1DAE42
:104C300027E000BF1888FF1F8C96FF1F8893FF1F77
:104C4000A4C300001CCB000003F0A8FA01462846CC
:104C5000FCF7F4FA2946304602F022FF284602F01B
:104C60004DFE04F00F030F2B3146CD4800F08E812E
:104C700002F040FD0134304602F040FE4C453FF466
:104C8000DDAA0021304602F079FE032F08EB040173
:104C90002046D9D95046FEF793F8D7E7C14FDFF841
:104CA00000833B681593159E002525AC08E03B6802
:104CB0001493149BD8F808209B1B934280F0FC822D
:104CC000C5F10601601904F077FD0544052DB449CE
:104CD000EDD99DF89430602B00F2E082402B94BF18
:104CE000303B373B9DF89520602A4FEA031840F28D
:104CF000CF82573A90441FFA88F80DF195020DF1D2
:104D00009900002712F8013F3F01602BA7F15701DE
:104D100000F25481402BA7F1370100F24F81303F60
:104D20001F448242EED1BFB2B8F1000F3FF486AA11
:104D3000002621ADBC19A4B221462846FCF79CFAF6
:104D40002946974802F0D6FC284602F0D7FD2046B7
:104D5000FBF7D2FF012184B2934804F099FD21466C
:104D60002846FCF789FA29468D4802F0C3FC2846FC
:104D700002F0C4FD082221462846FCF7BDFD294665
:104D8000874802F0B7FC864802F0DAFC0136284674
:104D900002F0B4FDB3B29845CCD8FFF74FBA814FBB
:104DA000DFF8FC813B680193019E002525AC08E0FB
:104DB0003B680093009BD8F808209B1B934280F02F
:104DC0007E82C5F10401601904F0F6FC0544032D50
:104DD0007349EDD926A9002014F8013B0001602B8E
:104DE000A0F1570200F2E880402BA0F1370200F258
:104DF000E380303818448C42EED1FCF70BF9FFF712
:104E00001DBA0120FDF7BCFAFFF718BA654FDFF8AD
:104E100090813B681993199E002525AC08E03B68FA
:104E20001893189BD8F808209B1B934280F03A8275
:104E3000C5F10501601904F0BFFC0544042D584973
:104E4000EDD99DF89460602E00F22A82402E94BF26
:104E5000303E373E26A82246002512F8013F2D019C
:104E6000602BA5F1570100F2A580402BA5F1370179
:104E700000F2A080303D1D448242EED13B68219378
:104E8000ADB2B5F5017FDDF884A0DFF814B12CBF19
:104E90004FF057084FF053084FF0000909E03B6806
:104EA0001D931D9BDBF80820CAEB0303934280F09F
:104EB0000082C9F1200104EB090004F07DFC81446B
:104EC000B9F11F0F3649EAD930230DF193078DF858
:104ED000B5308DF8B430BC460DF1A309A6460FE0FD
:104EE0004029A3F1370A15D8303B0B440132022A7E
:104EF00009D10CF8013FCC450EF1020E00F02081E3
:104F000000231A46704610F8011B1B016029A3F10B
:104F1000570AE5D901EB0A03E8E7012410212348E9
:104F20003C7004F0B5FC1E4802F00AFC2146204803
:104F300004F0AEFCFFF782B91A4F194E3B680D938F
:104F40000D9D25AC07E03B680C930C9BB2685B1B86
:104F5000934280F0CE810121204604F02DFC1049BF
:104F60000028F0D09DF89430302B00F0EA82312BED
:104F700000F0D482322B7FF461A9FBF799FE16E58D
:104F8000FCF7CAF8FFF75AB9991812E402F0B2FB1D
:104F9000034802F0D5FB6DE69F1835E69818D0E47B
:104FA0001888FF1F8C96FF1FA4C3000048CB000089
:104FB00008CB00005D185FE798181CE75F18B0E6A3
:104FC000991895E55D18FFF7B9BB98182AE51919E6
:104FD000CDE4981857E55C1838E4CB49CB4802F08B
:104FE0001FFE00287FF456AAC849C94802F050FDA8
:104FF0000521C84804F04CFC0121C74804F048FCD6
:10500000C349C64802F076FBBF49C04802F050FDD4
:10501000FFF714B9C249204602F0B0FC2146BC4853
:1050200002F02EFE06462046C9F30E0902F066FC89
:10503000002E00F0B08006222021B54802F062FE6A
:10504000B3490546204602F0BFFC05212046FCF787
:105050004DF986B2204602F051FC002DC0F2F181DC
:10506000AB49204602F0B0FC691C2046FCF73EF933
:105070008246204602F042FCBAF1000FD04640F3CF
:105080004983002531462046FCF7F6F82146A3481F
:1050900002F030FB204602F031FC3046FBF72CFEDC
:1050A000771C012186B29F4804F0F2FB314620466E
:1050B000FCF7E2F82146994802F01CFB204602F07A
:1050C0001DFC082231462046FCF716FC2146934879
:1050D00002F010FB0135914802F032FBADB22046E0
:1050E000BFB202F00BFC45453E46CBDB8C4921A804
:1050F00002F044FC39461DA8FCF7BEF81DA921A802
:1051000002F04EFD874902F053FD51460546204608
:10511000FCF7B2F82146284602F042FD01467B48E2
:1051200002F0B6FC204602F0E9FB1DA802F0E6FB07
:1051300021A802F0E3FB4846FBF7DEFDFFF7E9B9E3
:10514000032D00F28A81B6B206EBC5052D0117F8D2
:10515000011F381B284403F03BF84F45F7D1FFF7F8
:105160006DB8DAF8003001337FF4B4A96E4E2046F2
:105170001034214602F08CFCA642F8D12823644961
:105180006948CAF8003002F083FCFFF7A3B9FBF7C7
:105190000FFFFFF7A4B96549204602F0EFFB214657
:1051A0005B4802F06DFD0646204602F0A7FB002E8C
:1051B00000F0BE8006222021554802F0A3FD54498C
:1051C0000546204602F000FC05212046FCF78EF83B
:1051D00086B2204602F092FB002D80F24A814FF009
:1051E000100AD046002531462046FCF745F82146F6
:1051F0004A4802F07FFA204602F080FB3046FBF777
:105200007BFD771C834686B20121464804F040FBB3
:1052100031462046FCF730F82146404802F06AFA51
:10522000204602F06BFB01213E4804F031FBCBF33A
:1052300007202028B8BF202004F0AEFBF0B22028C1
:10524000B8BF202004F0A8FB013500212E4804F04F
:105250001FFBADB23148BFB202F072FAA8453E461C
:10526000C1DC21A8314943E7402A8CBF373A303AA4
:105270001644FFF7D6BA573BFFF7CABA402A8CBF8D
:10528000373A303A1644FFF744BA573BFFF738BA7B
:10529000402A8CBF373A303A90442CE5573B21E501
:1052A000573ED7E501230B73CBE501230B73FFF7C3
:1052B00037BB01230B7307E601230B7309E50123B9
:1052C0000B7387E501230B738DE401230B73FFF749
:1052D000C9BB01230B73FFF792BA01230B73FFF7CE
:1052E000F3BB01230B73FFF78CBB01230B73FFF799
:1052F00047BA01230B7335E601230B73FFF7F7B9A8
:1053000001230B73FFF74EBBB8C000007893FF1F5B
:10531000CC92FF1F5CCB000008CB00001888FF1F59
:105320006CCB0000A4C300006C96FF1F74CB000080
:10533000B049204602F022FB2146AF4802F0A0FC13
:105340000646204602F0DAFA002E00F0A58003227D
:105350002021A94802F0D6FCA7490646204602F0C3
:1053600033FB02212046FBF7C1FF0546204602F031
:10537000C5FA002E80F22C81ADB29E4921A802F020
:10538000FDFA0A2229461DA802F03CFB1DA921A80E
:1053900002F006FC994902F00BFC07462846FBF791
:1053A00093FC01462046FBF767FF2146384602F092
:1053B000F7FB0146924802F09DF9914802F0C0F9CE
:1053C000204602F09BFA1DA802F098FA21A802F0EC
:1053D00095FA002E8749C0F29F811DA802F0CEFAEF
:1053E000691C01F0030119A80A2202F00BFB19A99C
:1053F0001DA802F0D5FB834902F0DAFB7E49054681
:1054000021A802F0E1FA711C21A8FBF76FFF014609
:105410002046FBF731FF2146284602F0C1FB01463A
:10542000794802F035FB204602F068FA21A802F024
:1054300065FA19A802F062FA1DA802F05FFAFFF7F8
:1054400068B84FF0100AD0461BE6704A1368013B5B
:105450007FF5B6A80023FFF7B3B8043DB6B206EB5C
:10546000C5010901224640461023FDF72FFCFEF737
:10547000E5BE6149204602F0A7FA691C2046FBF709
:1054800035FF8246204602F039FABAF1000FD046C5
:105490003FF7A8AE3746E4E65D49204602F06EFAD3
:1054A0002146554802F0ECFB0646204602F026FA5B
:1054B000002E00F0B580022220214F4802F022FC8D
:1054C000051E0CDB4C49204602F07EFA691C204682
:1054D000FBF70CFFFBF710FC204602F00FFA4D49DA
:1054E000204602F04BFAFBF7CDFBC0F30E0121A8DA
:1054F000FBF7C2FE21A9204602F052FB01464048BC
:10550000FBF710FA21A802F0F9F9204602F0F6F9AB
:1055100041493D4802F0CCFAFEF7FBBFFBF7B2FB76
:10552000014621A8FBF75EFE21A9354802F0E2F80A
:10553000334802F005F921A802F0E0F99DF8943013
:1055400018E5FBF789FB014621A8FBF74BFE21A9D3
:105550002B4802F0CFF82A4802F0F2F821A802F016
:10556000CDF99DF8943002E59DF895202B48303A0E
:10557000D2B2002121AD01F029FC2846002102F021
:10558000FDF928261F49284602F0D8FA013EF9D134
:105590002946224802F0AEF8284602F0AFF99DF8FD
:1055A00095201E48303A3146D2B201F00FFC022F4E
:1055B0000ADD7E1E26440DF1950515F8011F1748DA
:1055C00001F088FCAE42F8D19DF89430FFF7A3BA01
:1055D0000949204602F0F8F9711C2046FBF786FEC7
:1055E000ADB201462846FBF7BFFB204602F086F924
:1055F000C3E600BFC8C80000CC92FF1F7CCB0000F0
:105600001888FF1FA4C300007893FF1F2893FF1F73
:1056100034C4000080CB000058C30000A892FF1FD4
:10562000D149204602F0AAF92146D04802F028FBD1
:105630008246204602F062F9BAF1000F00F086803F
:10564000374621AD1DAECA49284602F097F90A2215
:105650003946304602F0D6F93146284602F0A0FA23
:10566000C44902F0A5FA80463846FBF72DFB0146F7
:105670002046FBF701FE2146404602F091FA014622
:10568000BD4802F037F8BC4802F05AF8204602F054
:1056900035F9304602F032F90137284602F02EF98A
:1056A000042FD0D1B549204602F068F9FBF7EAFA99
:1056B000C0F30E012846FBF7DFFD2946204602F025
:1056C0006FFA0146AC48FBF72DF9284602F016F9AF
:1056D000204602F013F9AA49204602F04FF9FBF7E1
:1056E000D1FA0A22C10B284602F0A0F92946204629
:1056F00002F056FA0146A048FBF714F9284602F0DA
:10570000FDF8204602F0FAF89E499F4802F0D0F9D1
:10571000FEF7FFBE3746E9E4204602F02FF9691C88
:1057200001F003010A2221A802F06CF921A9204608
:1057300002F036FA0146944802F0AAF921A802F0D4
:10574000DDF8204602F0DAF8FEF7E3BE8F49204686
:1057500002F014F92146854802F092FA06462046E6
:1057600002F0CCF8002E4CD0052220217F4802F018
:10577000C9FA7E490646204602F026F90421204651
:10578000FBF7B4FD0546204602F0B8F8002E80F283
:105790000B81ADB27D4921A802F0F0F81DA8294681
:1057A000FBF76AFD1DA921A802F0FAF9714902F080
:1057B000FFF907462846FBF79FFA01462046FBF70C
:1057C0005BFD2146384602F0EBF901466A48FBF7DB
:1057D000A9F8204602F092F81DA802F08FF821A83F
:1057E00002F08CF84846FBF787FA002E6749C0F2B2
:1057F0001A811DA802F0C2F8691C19A8FBF73CFD2C
:10580000F5E56349204602F0B9F82146574802F011
:1058100037FA0646204602F071F8002E7DD00522A8
:105820002021524802F06EFA50490546204602F007
:10583000CBF804212046FBF759FD1FFA80F82046DB
:1058400002F05CF8002DC24638DB2A464749204664
:1058500002F08EFA204602F09BFA014619A802F0E7
:10586000B3F8204602F04AF819A84A4902F0D8F9DC
:10587000002800F0AA80404640F23E41FBF79CFA27
:1058800021AD4349204602F079F80AF1010128468A
:10589000FBF7F2FC2946204602F082F93E4902F06D
:1058A00087F90146384802F0F3F8284602F026F856
:1058B000204602F023F819A802F020F851462046AD
:1058C000FBF7DAFC21462C4801F014FF204602F0D9
:1058D00015F85046FBF710FA2F4985B22648FBF71A
:1058E00013F829462046FBF7C7FC2146224801F061
:1058F00001FF204602F002F8082229462046FBF765
:10590000FBFF21461C48FBF70DF8204601F0F6FF8F
:105910004846FBF7F1F9FEF7FCBD2049204602F0AE
:105920002DF82146114802F0ABF90646204601F059
:10593000E5FF002E7FD00D49204602F045F80321F7
:105940002046FBF7D3FC0546204601F0D7FFA8B25E
:10595000FBF78CFB12490848FAF7EEFF11490A4899
:1059600002F0A6F8FEF7D5BD88CB0000CC92FF1F51
:10597000C8C800007CCB00001888FF1F80CB000047
:105980008CCB0000B8C000007893FF1F98CB0000BC
:10599000A0CB0000A8CB0000A4C30000E0CB000017
:1059A000E4CB0000ECCB0000A849204602F00CF844
:1059B000711C2046FBF79AFCADB201462846FBF766
:1059C000FBF9204601F09AFFE4E6A14919A802F08C
:1059D00027F900284FD0404640F23F41FBF7ECF951
:1059E00021AD4EE79B49204601F0C8FF214697486C
:1059F00002F046F90546204601F080FF002D00F038
:105A000082849249204601F0DFFF04212046FBF703
:105A10006DFC0546ADB2204601F070FF29462820F6
:105A200002F08EFD8B49204601F0A8FF691C21A8D9
:105A3000FBF722FC7AE68849204601F09FFF2146C9
:105A4000824802F01DF90646204601F057FFF6B1E4
:105A500001237E492B70204601F0B6FF0421204629
:105A6000FBF744FC0546204601F048FFA8B2FBF7CF
:105A7000FDFA7A496FE77A4919A802F0D1F818B30C
:105A800040464FF48861FBF797F921ADF9E6754977
:105A9000204601F073FF21466C4802F0F1F80646FB
:105AA000204601F02BFF1EB3FBF74CFBFBF780FAFF
:105AB0002B786D4EA3B93368052B11D06B496C4818
:105AC00001F0F6FFFEF725BD6A4919A802F0A8F813
:105AD00048B3404640F25B41FBF76EF921ADD0E69A
